{
	"contracts/Choose.sol": {
		"Choose": {
			"abi": [
				{
					"inputs": [],
					"stateMutability": "nonpayable",
					"type": "constructor"
				},
				{
					"inputs": [
						{
							"internalType": "address",
							"name": "adr",
							"type": "address"
						}
					],
					"name": "getPeople",
					"outputs": [
						{
							"internalType": "address[]",
							"name": "_array",
							"type": "address[]"
						}
					],
					"stateMutability": "view",
					"type": "function"
				},
				{
					"inputs": [
						{
							"internalType": "address",
							"name": "adr",
							"type": "address"
						}
					],
					"name": "getVoting",
					"outputs": [
						{
							"internalType": "uint256",
							"name": "",
							"type": "uint256"
						}
					],
					"stateMutability": "view",
					"type": "function"
				},
				{
					"inputs": [
						{
							"internalType": "address",
							"name": "invited",
							"type": "address"
						},
						{
							"internalType": "address",
							"name": "higher",
							"type": "address"
						}
					],
					"name": "invite",
					"outputs": [
						{
							"internalType": "uint256",
							"name": "",
							"type": "uint256"
						}
					],
					"stateMutability": "nonpayable",
					"type": "function"
				},
				{
					"inputs": [],
					"name": "retDynamicZeroing",
					"outputs": [
						{
							"internalType": "uint256",
							"name": "",
							"type": "uint256"
						}
					],
					"stateMutability": "view",
					"type": "function"
				},
				{
					"inputs": [],
					"name": "retNeutrality",
					"outputs": [
						{
							"internalType": "uint256",
							"name": "",
							"type": "uint256"
						}
					],
					"stateMutability": "view",
					"type": "function"
				},
				{
					"inputs": [],
					"name": "retOpen",
					"outputs": [
						{
							"internalType": "uint256",
							"name": "",
							"type": "uint256"
						}
					],
					"stateMutability": "view",
					"type": "function"
				},
				{
					"inputs": [
						{
							"internalType": "uint256",
							"name": "choose",
							"type": "uint256"
						},
						{
							"internalType": "address",
							"name": "higher",
							"type": "address"
						}
					],
					"name": "voting",
					"outputs": [
						{
							"internalType": "uint256",
							"name": "",
							"type": "uint256"
						}
					],
					"stateMutability": "nonpayable",
					"type": "function"
				}
			],
			"devdoc": {
				"author": "historyblock.org",
				"details": "防疫措施公投",
				"kind": "dev",
				"methods": {
					"getPeople(address)": {
						"details": "返回对应账户邀请人"
					},
					"getVoting(address)": {
						"details": "返回账户对应投票结果",
						"returns": {
							"_0": "value of 'number'"
						}
					},
					"retDynamicZeroing()": {
						"details": "返回封锁用户投票数",
						"returns": {
							"_0": "value of 'number'"
						}
					},
					"retNeutrality()": {
						"details": "返回中立用户投票数",
						"returns": {
							"_0": "value of 'number'"
						}
					},
					"retOpen()": {
						"details": "返回开放用户投票数",
						"returns": {
							"_0": "value of 'number'"
						}
					}
				},
				"title": "选择",
				"version": 1
			},
			"evm": {
				"assembly": "    /* \"contracts/Choose.sol\":150:3892  contract Choose {... */\n  mstore(0x40, 0x80)\n    /* \"contracts/Choose.sol\":187:188  0 */\n  0x00\n    /* \"contracts/Choose.sol\":172:188  uint256 init = 0 */\n  dup1\n  sstore\n    /* \"contracts/Choose.sol\":215:216  0 */\n  0x00\n    /* \"contracts/Choose.sol\":194:216  uint256 neutrality = 0 */\n  0x01\n  sstore\n    /* \"contracts/Choose.sol\":246:247  0 */\n  0x00\n    /* \"contracts/Choose.sol\":231:247  uint256 open = 0 */\n  0x02\n  sstore\n    /* \"contracts/Choose.sol\":287:288  0 */\n  0x00\n    /* \"contracts/Choose.sol\":262:288  uint256 dynamicZeroing = 0 */\n  0x03\n  sstore\n    /* \"contracts/Choose.sol\":548:663  constructor() {... */\n  callvalue\n  dup1\n  iszero\n  tag_1\n  jumpi\n  0x00\n  dup1\n  revert\ntag_1:\n  pop\n    /* \"contracts/Choose.sol\":580:590  msg.sender */\n  caller\n    /* \"contracts/Choose.sol\":572:577  owner */\n  0x06\n  0x00\n    /* \"contracts/Choose.sol\":572:590  owner = msg.sender */\n  0x0100\n  exp\n  dup2\n  sload\n  dup2\n  0xffffffffffffffffffffffffffffffffffffffff\n  mul\n  not\n  and\n  swap1\n  dup4\n  0xffffffffffffffffffffffffffffffffffffffff\n  and\n  mul\n  or\n  swap1\n  sstore\n  pop\n    /* \"contracts/Choose.sol\":150:3892  contract Choose {... */\n  dataSize(sub_0)\n  dup1\n  dataOffset(sub_0)\n  0x00\n  codecopy\n  0x00\n  return\nstop\n\nsub_0: assembly {\n        /* \"contracts/Choose.sol\":150:3892  contract Choose {... */\n      mstore(0x40, 0x80)\n      callvalue\n      dup1\n      iszero\n      tag_1\n      jumpi\n      0x00\n      dup1\n      revert\n    tag_1:\n      pop\n      jumpi(tag_2, lt(calldatasize, 0x04))\n      shr(0xe0, calldataload(0x00))\n      dup1\n      0x3fc69d47\n      gt\n      tag_10\n      jumpi\n      dup1\n      0x3fc69d47\n      eq\n      tag_6\n      jumpi\n      dup1\n      0x6f4c6443\n      eq\n      tag_7\n      jumpi\n      dup1\n      0xd349973c\n      eq\n      tag_8\n      jumpi\n      dup1\n      0xdde23de8\n      eq\n      tag_9\n      jumpi\n      jump(tag_2)\n    tag_10:\n      dup1\n      0x0f5dbb50\n      eq\n      tag_3\n      jumpi\n      dup1\n      0x3017a1d8\n      eq\n      tag_4\n      jumpi\n      dup1\n      0x3a1c4a25\n      eq\n      tag_5\n      jumpi\n    tag_2:\n      0x00\n      dup1\n      revert\n        /* \"contracts/Choose.sol\":2610:2699  function retNeutrality() public view returns (uint256) {... */\n    tag_3:\n      tag_11\n      tag_12\n      jump\t// in\n    tag_11:\n      mload(0x40)\n      tag_13\n      swap2\n      swap1\n      tag_14\n      jump\t// in\n    tag_13:\n      mload(0x40)\n      dup1\n      swap2\n      sub\n      swap1\n      return\n        /* \"contracts/Choose.sol\":1618:2515  function voting(uint256 choose, address higher) public returns (uint256) {... */\n    tag_4:\n      tag_15\n      0x04\n      dup1\n      calldatasize\n      sub\n      dup2\n      add\n      swap1\n      tag_16\n      swap2\n      swap1\n      tag_17\n      jump\t// in\n    tag_16:\n      tag_18\n      jump\t// in\n    tag_15:\n      mload(0x40)\n      tag_19\n      swap2\n      swap1\n      tag_14\n      jump\t// in\n    tag_19:\n      mload(0x40)\n      dup1\n      swap2\n      sub\n      swap1\n      return\n        /* \"contracts/Choose.sol\":2966:3059  function retDynamicZeroing() public view returns (uint256) {... */\n    tag_5:\n      tag_20\n      tag_21\n      jump\t// in\n    tag_20:\n      mload(0x40)\n      tag_22\n      swap2\n      swap1\n      tag_14\n      jump\t// in\n    tag_22:\n      mload(0x40)\n      dup1\n      swap2\n      sub\n      swap1\n      return\n        /* \"contracts/Choose.sol\":3321:3464  function getPeople(address adr)... */\n    tag_6:\n      tag_23\n      0x04\n      dup1\n      calldatasize\n      sub\n      dup2\n      add\n      swap1\n      tag_24\n      swap2\n      swap1\n      tag_25\n      jump\t// in\n    tag_24:\n      tag_26\n      jump\t// in\n    tag_23:\n      mload(0x40)\n      tag_27\n      swap2\n      swap1\n      tag_28\n      jump\t// in\n    tag_27:\n      mload(0x40)\n      dup1\n      swap2\n      sub\n      swap1\n      return\n        /* \"contracts/Choose.sol\":781:1576  function invite(address invited, address higher) public returns (uint256) {... */\n    tag_7:\n      tag_29\n      0x04\n      dup1\n      calldatasize\n      sub\n      dup2\n      add\n      swap1\n      tag_30\n      swap2\n      swap1\n      tag_31\n      jump\t// in\n    tag_30:\n      tag_32\n      jump\t// in\n    tag_29:\n      mload(0x40)\n      tag_33\n      swap2\n      swap1\n      tag_14\n      jump\t// in\n    tag_33:\n      mload(0x40)\n      dup1\n      swap2\n      sub\n      swap1\n      return\n        /* \"contracts/Choose.sol\":2794:2871  function retOpen() public view returns (uint256) {... */\n    tag_8:\n      tag_34\n      tag_35\n      jump\t// in\n    tag_34:\n      mload(0x40)\n      tag_36\n      swap2\n      swap1\n      tag_14\n      jump\t// in\n    tag_36:\n      mload(0x40)\n      dup1\n      swap2\n      sub\n      swap1\n      return\n        /* \"contracts/Choose.sol\":3157:3259  function getVoting(address adr) public view returns (uint256) {... */\n    tag_9:\n      tag_37\n      0x04\n      dup1\n      calldatasize\n      sub\n      dup2\n      add\n      swap1\n      tag_38\n      swap2\n      swap1\n      tag_25\n      jump\t// in\n    tag_38:\n      tag_39\n      jump\t// in\n    tag_37:\n      mload(0x40)\n      tag_40\n      swap2\n      swap1\n      tag_14\n      jump\t// in\n    tag_40:\n      mload(0x40)\n      dup1\n      swap2\n      sub\n      swap1\n      return\n        /* \"contracts/Choose.sol\":2610:2699  function retNeutrality() public view returns (uint256) {... */\n    tag_12:\n        /* \"contracts/Choose.sol\":2656:2663  uint256 */\n      0x00\n        /* \"contracts/Choose.sol\":2682:2692  neutrality */\n      sload(0x01)\n        /* \"contracts/Choose.sol\":2675:2692  return neutrality */\n      swap1\n      pop\n        /* \"contracts/Choose.sol\":2610:2699  function retNeutrality() public view returns (uint256) {... */\n      swap1\n      jump\t// out\n        /* \"contracts/Choose.sol\":1618:2515  function voting(uint256 choose, address higher) public returns (uint256) {... */\n    tag_18:\n        /* \"contracts/Choose.sol\":1682:1689  uint256 */\n      0x00\n        /* \"contracts/Choose.sol\":1749:1750  1 */\n      0x01\n        /* \"contracts/Choose.sol\":1739:1745  choose */\n      dup4\n        /* \"contracts/Choose.sol\":1739:1750  choose == 1 */\n      eq\n        /* \"contracts/Choose.sol\":1739:1765  choose == 1 || choose == 2 */\n      dup1\n      tag_43\n      jumpi\n      pop\n        /* \"contracts/Choose.sol\":1764:1765  2 */\n      0x02\n        /* \"contracts/Choose.sol\":1754:1760  choose */\n      dup4\n        /* \"contracts/Choose.sol\":1754:1765  choose == 2 */\n      eq\n        /* \"contracts/Choose.sol\":1739:1765  choose == 1 || choose == 2 */\n    tag_43:\n        /* \"contracts/Choose.sol\":1739:1780  choose == 1 || choose == 2 || choose == 3 */\n      dup1\n      tag_44\n      jumpi\n      pop\n        /* \"contracts/Choose.sol\":1779:1780  3 */\n      0x03\n        /* \"contracts/Choose.sol\":1769:1775  choose */\n      dup4\n        /* \"contracts/Choose.sol\":1769:1780  choose == 3 */\n      eq\n        /* \"contracts/Choose.sol\":1739:1780  choose == 1 || choose == 2 || choose == 3 */\n    tag_44:\n        /* \"contracts/Choose.sol\":1733:1848  if (!(choose == 1 || choose == 2 || choose == 3)) {... */\n      tag_45\n      jumpi\n        /* \"contracts/Choose.sol\":1797:1837  revert(\"Please enter the correct value\") */\n      mload(0x40)\n      0x08c379a000000000000000000000000000000000000000000000000000000000\n      dup2\n      mstore\n      0x04\n      add\n      tag_46\n      swap1\n      tag_47\n      jump\t// in\n    tag_46:\n      mload(0x40)\n      dup1\n      swap2\n      sub\n      swap1\n      revert\n        /* \"contracts/Choose.sol\":1733:1848  if (!(choose == 1 || choose == 2 || choose == 3)) {... */\n    tag_45:\n        /* \"contracts/Choose.sol\":1920:1925  false */\n      0x00\n        /* \"contracts/Choose.sol\":1894:1925  whitelistCheck(higher) == false */\n      iszero\n      iszero\n        /* \"contracts/Choose.sol\":1894:1916  whitelistCheck(higher) */\n      tag_48\n        /* \"contracts/Choose.sol\":1909:1915  higher */\n      dup4\n        /* \"contracts/Choose.sol\":1894:1908  whitelistCheck */\n      tag_49\n        /* \"contracts/Choose.sol\":1894:1916  whitelistCheck(higher) */\n      jump\t// in\n    tag_48:\n        /* \"contracts/Choose.sol\":1894:1925  whitelistCheck(higher) == false */\n      iszero\n      iszero\n      eq\n        /* \"contracts/Choose.sol\":1890:2000  if (whitelistCheck(higher) == false) {... */\n      iszero\n      tag_50\n      jumpi\n        /* \"contracts/Choose.sol\":1941:1989  revert(\"Please contact 66ccff@historyblock.org\") */\n      mload(0x40)\n      0x08c379a000000000000000000000000000000000000000000000000000000000\n      dup2\n      mstore\n      0x04\n      add\n      tag_51\n      swap1\n      tag_52\n      jump\t// in\n    tag_51:\n      mload(0x40)\n      dup1\n      swap2\n      sub\n      swap1\n      revert\n        /* \"contracts/Choose.sol\":1890:2000  if (whitelistCheck(higher) == false) {... */\n    tag_50:\n        /* \"contracts/Choose.sol\":2079:2080  0 */\n      0x00\n        /* \"contracts/Choose.sol\":2052:2063  votingCheck */\n      0x05\n        /* \"contracts/Choose.sol\":2052:2075  votingCheck[msg.sender] */\n      0x00\n        /* \"contracts/Choose.sol\":2064:2074  msg.sender */\n      caller\n        /* \"contracts/Choose.sol\":2052:2075  votingCheck[msg.sender] */\n      0xffffffffffffffffffffffffffffffffffffffff\n      and\n      0xffffffffffffffffffffffffffffffffffffffff\n      and\n      dup2\n      mstore\n      0x20\n      add\n      swap1\n      dup2\n      mstore\n      0x20\n      add\n      0x00\n      keccak256\n      sload\n        /* \"contracts/Choose.sol\":2052:2080  votingCheck[msg.sender] != 0 */\n      eq\n        /* \"contracts/Choose.sol\":2048:2130  if (votingCheck[msg.sender] != 0) {... */\n      tag_53\n      jumpi\n        /* \"contracts/Choose.sol\":2096:2119  revert(\"Already voted\") */\n      mload(0x40)\n      0x08c379a000000000000000000000000000000000000000000000000000000000\n      dup2\n      mstore\n      0x04\n      add\n      tag_54\n      swap1\n      tag_55\n      jump\t// in\n    tag_54:\n      mload(0x40)\n      dup1\n      swap2\n      sub\n      swap1\n      revert\n        /* \"contracts/Choose.sol\":2048:2130  if (votingCheck[msg.sender] != 0) {... */\n    tag_53:\n        /* \"contracts/Choose.sol\":2166:2172  choose */\n      dup3\n        /* \"contracts/Choose.sol\":2140:2151  votingCheck */\n      0x05\n        /* \"contracts/Choose.sol\":2140:2163  votingCheck[msg.sender] */\n      0x00\n        /* \"contracts/Choose.sol\":2152:2162  msg.sender */\n      caller\n        /* \"contracts/Choose.sol\":2140:2163  votingCheck[msg.sender] */\n      0xffffffffffffffffffffffffffffffffffffffff\n      and\n      0xffffffffffffffffffffffffffffffffffffffff\n      and\n      dup2\n      mstore\n      0x20\n      add\n      swap1\n      dup2\n      mstore\n      0x20\n      add\n      0x00\n      keccak256\n        /* \"contracts/Choose.sol\":2140:2172  votingCheck[msg.sender] = choose */\n      dup2\n      swap1\n      sstore\n      pop\n        /* \"contracts/Choose.sol\":2197:2198  1 */\n      0x01\n        /* \"contracts/Choose.sol\":2187:2193  choose */\n      dup4\n        /* \"contracts/Choose.sol\":2187:2198  choose == 1 */\n      eq\n        /* \"contracts/Choose.sol\":2183:2490  if (choose == 1) {... */\n      iszero\n      tag_56\n      jumpi\n        /* \"contracts/Choose.sol\":2232:2233  1 */\n      0x01\n        /* \"contracts/Choose.sol\":2214:2228  dynamicZeroing */\n      0x03\n      0x00\n        /* \"contracts/Choose.sol\":2214:2233  dynamicZeroing += 1 */\n      dup3\n      dup3\n      sload\n      tag_57\n      swap2\n      swap1\n      tag_58\n      jump\t// in\n    tag_57:\n      swap3\n      pop\n      pop\n      dup2\n      swap1\n      sstore\n      pop\n        /* \"contracts/Choose.sol\":2271:2285  dynamicZeroing */\n      sload(0x03)\n        /* \"contracts/Choose.sol\":2264:2285  return dynamicZeroing */\n      swap1\n      pop\n      jump(tag_42)\n        /* \"contracts/Choose.sol\":2183:2490  if (choose == 1) {... */\n    tag_56:\n        /* \"contracts/Choose.sol\":2316:2317  2 */\n      0x02\n        /* \"contracts/Choose.sol\":2306:2312  choose */\n      dup4\n        /* \"contracts/Choose.sol\":2306:2317  choose == 2 */\n      eq\n        /* \"contracts/Choose.sol\":2302:2490  if (choose == 2) {... */\n      iszero\n      tag_60\n      jumpi\n        /* \"contracts/Choose.sol\":2341:2342  1 */\n      0x01\n        /* \"contracts/Choose.sol\":2333:2337  open */\n      0x02\n      0x00\n        /* \"contracts/Choose.sol\":2333:2342  open += 1 */\n      dup3\n      dup3\n      sload\n      tag_61\n      swap2\n      swap1\n      tag_58\n      jump\t// in\n    tag_61:\n      swap3\n      pop\n      pop\n      dup2\n      swap1\n      sstore\n      pop\n        /* \"contracts/Choose.sol\":2372:2376  open */\n      sload(0x02)\n        /* \"contracts/Choose.sol\":2365:2376  return open */\n      swap1\n      pop\n      jump(tag_42)\n        /* \"contracts/Choose.sol\":2302:2490  if (choose == 2) {... */\n    tag_60:\n        /* \"contracts/Choose.sol\":2407:2408  3 */\n      0x03\n        /* \"contracts/Choose.sol\":2397:2403  choose */\n      dup4\n        /* \"contracts/Choose.sol\":2397:2408  choose == 3 */\n      eq\n        /* \"contracts/Choose.sol\":2393:2490  if (choose == 3) {... */\n      iszero\n      tag_63\n      jumpi\n        /* \"contracts/Choose.sol\":2438:2439  1 */\n      0x01\n        /* \"contracts/Choose.sol\":2424:2434  neutrality */\n      dup1\n      0x00\n        /* \"contracts/Choose.sol\":2424:2439  neutrality += 1 */\n      dup3\n      dup3\n      sload\n      tag_64\n      swap2\n      swap1\n      tag_58\n      jump\t// in\n    tag_64:\n      swap3\n      pop\n      pop\n      dup2\n      swap1\n      sstore\n      pop\n        /* \"contracts/Choose.sol\":2469:2479  neutrality */\n      sload(0x01)\n        /* \"contracts/Choose.sol\":2462:2479  return neutrality */\n      swap1\n      pop\n      jump(tag_42)\n        /* \"contracts/Choose.sol\":2393:2490  if (choose == 3) {... */\n    tag_63:\n        /* \"contracts/Choose.sol\":2507:2508  0 */\n      0x00\n        /* \"contracts/Choose.sol\":2500:2508  return 0 */\n      swap1\n      pop\n        /* \"contracts/Choose.sol\":1618:2515  function voting(uint256 choose, address higher) public returns (uint256) {... */\n    tag_42:\n      swap3\n      swap2\n      pop\n      pop\n      jump\t// out\n        /* \"contracts/Choose.sol\":2966:3059  function retDynamicZeroing() public view returns (uint256) {... */\n    tag_21:\n        /* \"contracts/Choose.sol\":3016:3023  uint256 */\n      0x00\n        /* \"contracts/Choose.sol\":3042:3052  neutrality */\n      sload(0x01)\n        /* \"contracts/Choose.sol\":3035:3052  return neutrality */\n      swap1\n      pop\n        /* \"contracts/Choose.sol\":2966:3059  function retDynamicZeroing() public view returns (uint256) {... */\n      swap1\n      jump\t// out\n        /* \"contracts/Choose.sol\":3321:3464  function getPeople(address adr)... */\n    tag_26:\n        /* \"contracts/Choose.sol\":3398:3421  address[] memory _array */\n      0x60\n        /* \"contracts/Choose.sol\":3446:3452  people */\n      0x04\n        /* \"contracts/Choose.sol\":3446:3457  people[adr] */\n      0x00\n        /* \"contracts/Choose.sol\":3453:3456  adr */\n      dup4\n        /* \"contracts/Choose.sol\":3446:3457  people[adr] */\n      0xffffffffffffffffffffffffffffffffffffffff\n      and\n      0xffffffffffffffffffffffffffffffffffffffff\n      and\n      dup2\n      mstore\n      0x20\n      add\n      swap1\n      dup2\n      mstore\n      0x20\n      add\n      0x00\n      keccak256\n        /* \"contracts/Choose.sol\":3437:3457  _array = people[adr] */\n      dup1\n      sload\n      dup1\n      0x20\n      mul\n      0x20\n      add\n      mload(0x40)\n      swap1\n      dup2\n      add\n      0x40\n      mstore\n      dup1\n      swap3\n      swap2\n      swap1\n      dup2\n      dup2\n      mstore\n      0x20\n      add\n      dup3\n      dup1\n      sload\n      dup1\n      iszero\n      tag_67\n      jumpi\n      0x20\n      mul\n      dup3\n      add\n      swap2\n      swap1\n      0x00\n      mstore\n      keccak256(0x00, 0x20)\n      swap1\n    tag_68:\n      dup2\n      0x00\n      swap1\n      sload\n      swap1\n      0x0100\n      exp\n      swap1\n      div\n      0xffffffffffffffffffffffffffffffffffffffff\n      and\n      0xffffffffffffffffffffffffffffffffffffffff\n      and\n      dup2\n      mstore\n      0x20\n      add\n      swap1\n      0x01\n      add\n      swap1\n      dup1\n      dup4\n      gt\n      tag_68\n      jumpi\n    tag_67:\n      pop\n      pop\n      pop\n      pop\n      pop\n      swap1\n      pop\n        /* \"contracts/Choose.sol\":3321:3464  function getPeople(address adr)... */\n      swap2\n      swap1\n      pop\n      jump\t// out\n        /* \"contracts/Choose.sol\":781:1576  function invite(address invited, address higher) public returns (uint256) {... */\n    tag_32:\n        /* \"contracts/Choose.sol\":846:853  uint256 */\n      0x00\n        /* \"contracts/Choose.sol\":877:878  0 */\n      dup1\n        /* \"contracts/Choose.sol\":869:873  init */\n      sload(0x00)\n        /* \"contracts/Choose.sol\":869:878  init == 0 */\n      eq\n        /* \"contracts/Choose.sol\":869:901  init == 0 && owner == msg.sender */\n      dup1\n      iszero\n      tag_70\n      jumpi\n      pop\n        /* \"contracts/Choose.sol\":891:901  msg.sender */\n      caller\n        /* \"contracts/Choose.sol\":882:901  owner == msg.sender */\n      0xffffffffffffffffffffffffffffffffffffffff\n      and\n        /* \"contracts/Choose.sol\":882:887  owner */\n      0x06\n      0x00\n      swap1\n      sload\n      swap1\n      0x0100\n      exp\n      swap1\n      div\n      0xffffffffffffffffffffffffffffffffffffffff\n      and\n        /* \"contracts/Choose.sol\":882:901  owner == msg.sender */\n      0xffffffffffffffffffffffffffffffffffffffff\n      and\n      eq\n        /* \"contracts/Choose.sol\":869:901  init == 0 && owner == msg.sender */\n    tag_70:\n        /* \"contracts/Choose.sol\":865:1570  if (init == 0 && owner == msg.sender) {... */\n      iszero\n      tag_71\n      jumpi\n        /* \"contracts/Choose.sol\":936:937  0 */\n      0x00\n        /* \"contracts/Choose.sol\":922:938  new address[](0) */\n      0xffffffffffffffff\n      dup2\n      gt\n      iszero\n      tag_72\n      jumpi\n      tag_73\n      tag_74\n      jump\t// in\n    tag_73:\n    tag_72:\n      mload(0x40)\n      swap1\n      dup1\n      dup3\n      mstore\n      dup1\n      0x20\n      mul\n      0x20\n      add\n      dup3\n      add\n      0x40\n      mstore\n      dup1\n      iszero\n      tag_75\n      jumpi\n      dup2\n      0x20\n      add\n      0x20\n      dup3\n      mul\n      dup1\n      calldatasize\n      dup4\n      calldatacopy\n      dup1\n      dup3\n      add\n      swap2\n      pop\n      pop\n      swap1\n      pop\n    tag_75:\n      pop\n        /* \"contracts/Choose.sol\":917:919  a6 */\n      0x07\n        /* \"contracts/Choose.sol\":917:938  a6 = new address[](0) */\n      swap1\n      dup1\n      mload\n      swap1\n      0x20\n      add\n      swap1\n      tag_76\n      swap3\n      swap2\n      swap1\n      tag_77\n      jump\t// in\n    tag_76:\n      pop\n        /* \"contracts/Choose.sol\":952:954  a6 */\n      0x07\n        /* \"contracts/Choose.sol\":960:967  invited */\n      dup4\n        /* \"contracts/Choose.sol\":952:968  a6.push(invited) */\n      swap1\n      dup1\n      0x01\n      dup2\n      sload\n      add\n      dup1\n      dup3\n      sstore\n      dup1\n      swap2\n      pop\n      pop\n      0x01\n      swap1\n      sub\n      swap1\n      0x00\n      mstore\n      keccak256(0x00, 0x20)\n      add\n      0x00\n      swap1\n      swap2\n      swap1\n      swap2\n      swap1\n      swap2\n      0x0100\n      exp\n      dup2\n      sload\n      dup2\n      0xffffffffffffffffffffffffffffffffffffffff\n      mul\n      not\n      and\n      swap1\n      dup4\n      0xffffffffffffffffffffffffffffffffffffffff\n      and\n      mul\n      or\n      swap1\n      sstore\n      pop\n        /* \"contracts/Choose.sol\":1003:1005  a6 */\n      0x07\n        /* \"contracts/Choose.sol\":982:988  people */\n      0x04\n        /* \"contracts/Choose.sol\":982:1000  people[msg.sender] */\n      0x00\n        /* \"contracts/Choose.sol\":989:999  msg.sender */\n      caller\n        /* \"contracts/Choose.sol\":982:1000  people[msg.sender] */\n      0xffffffffffffffffffffffffffffffffffffffff\n      and\n      0xffffffffffffffffffffffffffffffffffffffff\n      and\n      dup2\n      mstore\n      0x20\n      add\n      swap1\n      dup2\n      mstore\n      0x20\n      add\n      0x00\n      keccak256\n        /* \"contracts/Choose.sol\":982:1005  people[msg.sender] = a6 */\n      swap1\n      dup1\n      sload\n      tag_79\n      swap3\n      swap2\n      swap1\n      tag_80\n      jump\t// in\n    tag_79:\n      pop\n        /* \"contracts/Choose.sol\":1026:1027  1 */\n      0x01\n        /* \"contracts/Choose.sol\":1019:1023  init */\n      0x00\n        /* \"contracts/Choose.sol\":1019:1027  init = 1 */\n      dup2\n      swap1\n      sstore\n      pop\n        /* \"contracts/Choose.sol\":1048:1050  a6 */\n      0x07\n        /* \"contracts/Choose.sol\":1048:1057  a6.length */\n      dup1\n      sload\n      swap1\n      pop\n        /* \"contracts/Choose.sol\":1041:1057  return a6.length */\n      swap1\n      pop\n      jump(tag_69)\n        /* \"contracts/Choose.sol\":865:1570  if (init == 0 && owner == msg.sender) {... */\n    tag_71:\n        /* \"contracts/Choose.sol\":1118:1123  false */\n      0x00\n        /* \"contracts/Choose.sol\":1092:1123  whitelistCheck(higher) == false */\n      iszero\n      iszero\n        /* \"contracts/Choose.sol\":1092:1114  whitelistCheck(higher) */\n      tag_82\n        /* \"contracts/Choose.sol\":1107:1113  higher */\n      dup4\n        /* \"contracts/Choose.sol\":1092:1106  whitelistCheck */\n      tag_49\n        /* \"contracts/Choose.sol\":1092:1114  whitelistCheck(higher) */\n      jump\t// in\n    tag_82:\n        /* \"contracts/Choose.sol\":1092:1123  whitelistCheck(higher) == false */\n      iszero\n      iszero\n      eq\n        /* \"contracts/Choose.sol\":1088:1488  if (whitelistCheck(higher) == false) {... */\n      iszero\n      tag_83\n      jumpi\n        /* \"contracts/Choose.sol\":1143:1191  revert(\"Please contact 66ccff@historyblock.org\") */\n      mload(0x40)\n      0x08c379a000000000000000000000000000000000000000000000000000000000\n      dup2\n      mstore\n      0x04\n      add\n      tag_84\n      swap1\n      tag_52\n      jump\t// in\n    tag_84:\n      mload(0x40)\n      dup1\n      swap2\n      sub\n      swap1\n      revert\n        /* \"contracts/Choose.sol\":1088:1488  if (whitelistCheck(higher) == false) {... */\n    tag_83:\n        /* \"contracts/Choose.sol\":1235:1241  people */\n      0x04\n        /* \"contracts/Choose.sol\":1235:1253  people[msg.sender] */\n      0x00\n        /* \"contracts/Choose.sol\":1242:1252  msg.sender */\n      caller\n        /* \"contracts/Choose.sol\":1235:1253  people[msg.sender] */\n      0xffffffffffffffffffffffffffffffffffffffff\n      and\n      0xffffffffffffffffffffffffffffffffffffffff\n      and\n      dup2\n      mstore\n      0x20\n      add\n      swap1\n      dup2\n      mstore\n      0x20\n      add\n      0x00\n      keccak256\n        /* \"contracts/Choose.sol\":1230:1232  a6 */\n      0x07\n        /* \"contracts/Choose.sol\":1230:1253  a6 = people[msg.sender] */\n      swap1\n      dup1\n      sload\n      tag_86\n      swap3\n      swap2\n      swap1\n      tag_80\n      jump\t// in\n    tag_86:\n      pop\n        /* \"contracts/Choose.sol\":1271:1273  a6 */\n      0x07\n        /* \"contracts/Choose.sol\":1279:1286  invited */\n      dup4\n        /* \"contracts/Choose.sol\":1271:1287  a6.push(invited) */\n      swap1\n      dup1\n      0x01\n      dup2\n      sload\n      add\n      dup1\n      dup3\n      sstore\n      dup1\n      swap2\n      pop\n      pop\n      0x01\n      swap1\n      sub\n      swap1\n      0x00\n      mstore\n      keccak256(0x00, 0x20)\n      add\n      0x00\n      swap1\n      swap2\n      swap1\n      swap2\n      swap1\n      swap2\n      0x0100\n      exp\n      dup2\n      sload\n      dup2\n      0xffffffffffffffffffffffffffffffffffffffff\n      mul\n      not\n      and\n      swap1\n      dup4\n      0xffffffffffffffffffffffffffffffffffffffff\n      and\n      mul\n      or\n      swap1\n      sstore\n      pop\n        /* \"contracts/Choose.sol\":1369:1370  6 */\n      0x06\n        /* \"contracts/Choose.sol\":1356:1358  a6 */\n      0x07\n        /* \"contracts/Choose.sol\":1356:1365  a6.length */\n      dup1\n      sload\n      swap1\n      pop\n        /* \"contracts/Choose.sol\":1356:1370  a6.length <= 6 */\n      gt\n        /* \"contracts/Choose.sol\":1352:1474  if (a6.length <= 6) {... */\n      tag_88\n      jumpi\n        /* \"contracts/Choose.sol\":1415:1417  a6 */\n      0x07\n        /* \"contracts/Choose.sol\":1394:1400  people */\n      0x04\n        /* \"contracts/Choose.sol\":1394:1412  people[msg.sender] */\n      0x00\n        /* \"contracts/Choose.sol\":1401:1411  msg.sender */\n      caller\n        /* \"contracts/Choose.sol\":1394:1412  people[msg.sender] */\n      0xffffffffffffffffffffffffffffffffffffffff\n      and\n      0xffffffffffffffffffffffffffffffffffffffff\n      and\n      dup2\n      mstore\n      0x20\n      add\n      swap1\n      dup2\n      mstore\n      0x20\n      add\n      0x00\n      keccak256\n        /* \"contracts/Choose.sol\":1394:1417  people[msg.sender] = a6 */\n      swap1\n      dup1\n      sload\n      tag_89\n      swap3\n      swap2\n      swap1\n      tag_80\n      jump\t// in\n    tag_89:\n      pop\n        /* \"contracts/Choose.sol\":1446:1448  a6 */\n      0x07\n        /* \"contracts/Choose.sol\":1446:1455  a6.length */\n      dup1\n      sload\n      swap1\n      pop\n        /* \"contracts/Choose.sol\":1439:1455  return a6.length */\n      swap1\n      pop\n      jump(tag_69)\n        /* \"contracts/Choose.sol\":1352:1474  if (a6.length <= 6) {... */\n    tag_88:\n        /* \"contracts/Choose.sol\":1502:1559  revert(\"The number of invitations has exceeded 6 people\") */\n      mload(0x40)\n      0x08c379a000000000000000000000000000000000000000000000000000000000\n      dup2\n      mstore\n      0x04\n      add\n      tag_90\n      swap1\n      tag_91\n      jump\t// in\n    tag_90:\n      mload(0x40)\n      dup1\n      swap2\n      sub\n      swap1\n      revert\n        /* \"contracts/Choose.sol\":781:1576  function invite(address invited, address higher) public returns (uint256) {... */\n    tag_69:\n      swap3\n      swap2\n      pop\n      pop\n      jump\t// out\n        /* \"contracts/Choose.sol\":2794:2871  function retOpen() public view returns (uint256) {... */\n    tag_35:\n        /* \"contracts/Choose.sol\":2834:2841  uint256 */\n      0x00\n        /* \"contracts/Choose.sol\":2860:2864  open */\n      sload(0x02)\n        /* \"contracts/Choose.sol\":2853:2864  return open */\n      swap1\n      pop\n        /* \"contracts/Choose.sol\":2794:2871  function retOpen() public view returns (uint256) {... */\n      swap1\n      jump\t// out\n        /* \"contracts/Choose.sol\":3157:3259  function getVoting(address adr) public view returns (uint256) {... */\n    tag_39:\n        /* \"contracts/Choose.sol\":3210:3217  uint256 */\n      0x00\n        /* \"contracts/Choose.sol\":3236:3247  votingCheck */\n      0x05\n        /* \"contracts/Choose.sol\":3236:3252  votingCheck[adr] */\n      0x00\n        /* \"contracts/Choose.sol\":3248:3251  adr */\n      dup4\n        /* \"contracts/Choose.sol\":3236:3252  votingCheck[adr] */\n      0xffffffffffffffffffffffffffffffffffffffff\n      and\n      0xffffffffffffffffffffffffffffffffffffffff\n      and\n      dup2\n      mstore\n      0x20\n      add\n      swap1\n      dup2\n      mstore\n      0x20\n      add\n      0x00\n      keccak256\n      sload\n        /* \"contracts/Choose.sol\":3229:3252  return votingCheck[adr] */\n      swap1\n      pop\n        /* \"contracts/Choose.sol\":3157:3259  function getVoting(address adr) public view returns (uint256) {... */\n      swap2\n      swap1\n      pop\n      jump\t// out\n        /* \"contracts/Choose.sol\":3489:3890  function whitelistCheck(address higher) private returns (bool) {... */\n    tag_49:\n        /* \"contracts/Choose.sol\":3546:3550  bool */\n      0x00\n        /* \"contracts/Choose.sol\":3567:3573  people */\n      0x04\n        /* \"contracts/Choose.sol\":3567:3581  people[higher] */\n      0x00\n        /* \"contracts/Choose.sol\":3574:3580  higher */\n      dup4\n        /* \"contracts/Choose.sol\":3567:3581  people[higher] */\n      0xffffffffffffffffffffffffffffffffffffffff\n      and\n      0xffffffffffffffffffffffffffffffffffffffff\n      and\n      dup2\n      mstore\n      0x20\n      add\n      swap1\n      dup2\n      mstore\n      0x20\n      add\n      0x00\n      keccak256\n        /* \"contracts/Choose.sol\":3562:3564  a6 */\n      0x07\n        /* \"contracts/Choose.sol\":3562:3581  a6 = people[higher] */\n      swap1\n      dup1\n      sload\n      tag_95\n      swap3\n      swap2\n      swap1\n      tag_80\n      jump\t// in\n    tag_95:\n      pop\n        /* \"contracts/Choose.sol\":3608:3609  0 */\n      0x00\n        /* \"contracts/Choose.sol\":3595:3597  a6 */\n      0x07\n        /* \"contracts/Choose.sol\":3595:3604  a6.length */\n      dup1\n      sload\n      swap1\n      pop\n        /* \"contracts/Choose.sol\":3595:3609  a6.length == 0 */\n      eq\n        /* \"contracts/Choose.sol\":3591:3884  if (a6.length == 0) {... */\n      iszero\n      tag_96\n      jumpi\n        /* \"contracts/Choose.sol\":3632:3637  false */\n      0x00\n        /* \"contracts/Choose.sol\":3625:3637  return false */\n      swap1\n      pop\n      jump(tag_94)\n        /* \"contracts/Choose.sol\":3591:3884  if (a6.length == 0) {... */\n    tag_96:\n        /* \"contracts/Choose.sol\":3673:3682  uint256 i */\n      0x00\n        /* \"contracts/Choose.sol\":3668:3848  for (uint256 i = 0; i < a6.length; i++) {... */\n    tag_98:\n        /* \"contracts/Choose.sol\":3692:3694  a6 */\n      0x07\n        /* \"contracts/Choose.sol\":3692:3701  a6.length */\n      dup1\n      sload\n      swap1\n      pop\n        /* \"contracts/Choose.sol\":3688:3689  i */\n      dup2\n        /* \"contracts/Choose.sol\":3688:3701  i < a6.length */\n      lt\n        /* \"contracts/Choose.sol\":3668:3848  for (uint256 i = 0; i < a6.length; i++) {... */\n      iszero\n      tag_99\n      jumpi\n        /* \"contracts/Choose.sol\":3770:3780  msg.sender */\n      caller\n        /* \"contracts/Choose.sol\":3761:3780  a6[i] == msg.sender */\n      0xffffffffffffffffffffffffffffffffffffffff\n      and\n        /* \"contracts/Choose.sol\":3761:3763  a6 */\n      0x07\n        /* \"contracts/Choose.sol\":3764:3765  i */\n      dup3\n        /* \"contracts/Choose.sol\":3761:3766  a6[i] */\n      dup2\n      sload\n      dup2\n      lt\n      tag_101\n      jumpi\n      tag_102\n      tag_103\n      jump\t// in\n    tag_102:\n    tag_101:\n      swap1\n      0x00\n      mstore\n      keccak256(0x00, 0x20)\n      add\n      0x00\n      swap1\n      sload\n      swap1\n      0x0100\n      exp\n      swap1\n      div\n      0xffffffffffffffffffffffffffffffffffffffff\n      and\n        /* \"contracts/Choose.sol\":3761:3780  a6[i] == msg.sender */\n      0xffffffffffffffffffffffffffffffffffffffff\n      and\n      eq\n        /* \"contracts/Choose.sol\":3757:3834  if (a6[i] == msg.sender) {... */\n      iszero\n      tag_105\n      jumpi\n        /* \"contracts/Choose.sol\":3811:3815  true */\n      0x01\n        /* \"contracts/Choose.sol\":3804:3815  return true */\n      swap2\n      pop\n      pop\n      jump(tag_94)\n        /* \"contracts/Choose.sol\":3757:3834  if (a6[i] == msg.sender) {... */\n    tag_105:\n        /* \"contracts/Choose.sol\":3703:3706  i++ */\n      dup1\n      dup1\n      tag_106\n      swap1\n      tag_107\n      jump\t// in\n    tag_106:\n      swap2\n      pop\n      pop\n        /* \"contracts/Choose.sol\":3668:3848  for (uint256 i = 0; i < a6.length; i++) {... */\n      jump(tag_98)\n    tag_99:\n      pop\n        /* \"contracts/Choose.sol\":3868:3873  false */\n      0x00\n        /* \"contracts/Choose.sol\":3861:3873  return false */\n      swap1\n      pop\n        /* \"contracts/Choose.sol\":3489:3890  function whitelistCheck(address higher) private returns (bool) {... */\n    tag_94:\n      swap2\n      swap1\n      pop\n      jump\t// out\n    tag_77:\n      dup3\n      dup1\n      sload\n      dup3\n      dup3\n      sstore\n      swap1\n      0x00\n      mstore\n      keccak256(0x00, 0x20)\n      swap1\n      dup2\n      add\n      swap3\n      dup3\n      iszero\n      tag_108\n      jumpi\n      swap2\n      0x20\n      mul\n      dup3\n      add\n    tag_109:\n      dup3\n      dup2\n      gt\n      iszero\n      tag_110\n      jumpi\n      dup3\n      mload\n      dup3\n      exp(0x0100, 0x00)\n      dup2\n      sload\n      dup2\n      0xffffffffffffffffffffffffffffffffffffffff\n      mul\n      not\n      and\n      swap1\n      dup4\n      0xffffffffffffffffffffffffffffffffffffffff\n      and\n      mul\n      or\n      swap1\n      sstore\n      pop\n      swap2\n      0x20\n      add\n      swap2\n      swap1\n      0x01\n      add\n      swap1\n      jump(tag_109)\n    tag_110:\n    tag_108:\n      pop\n      swap1\n      pop\n      tag_111\n      swap2\n      swap1\n      tag_112\n      jump\t// in\n    tag_111:\n      pop\n      swap1\n      jump\t// out\n    tag_80:\n      dup3\n      dup1\n      sload\n      dup3\n      dup3\n      sstore\n      swap1\n      0x00\n      mstore\n      keccak256(0x00, 0x20)\n      swap1\n      dup2\n      add\n      swap3\n      dup3\n      iszero\n      tag_113\n      jumpi\n      0x00\n      mstore\n      keccak256(0x00, 0x20)\n      swap2\n      dup3\n      add\n    tag_114:\n      dup3\n      dup2\n      gt\n      iszero\n      tag_115\n      jumpi\n      dup3\n      sload\n      dup3\n      sstore\n      swap2\n      0x01\n      add\n      swap2\n      swap1\n      0x01\n      add\n      swap1\n      jump(tag_114)\n    tag_115:\n    tag_113:\n      pop\n      swap1\n      pop\n      tag_116\n      swap2\n      swap1\n      tag_112\n      jump\t// in\n    tag_116:\n      pop\n      swap1\n      jump\t// out\n    tag_112:\n    tag_117:\n      dup1\n      dup3\n      gt\n      iszero\n      tag_118\n      jumpi\n      0x00\n      dup2\n      0x00\n      swap1\n      sstore\n      pop\n      0x01\n      add\n      jump(tag_117)\n    tag_118:\n      pop\n      swap1\n      jump\t// out\n        /* \"#utility.yul\":7:146   */\n    tag_120:\n        /* \"#utility.yul\":53:58   */\n      0x00\n        /* \"#utility.yul\":91:97   */\n      dup2\n        /* \"#utility.yul\":78:98   */\n      calldataload\n        /* \"#utility.yul\":69:98   */\n      swap1\n      pop\n        /* \"#utility.yul\":107:140   */\n      tag_122\n        /* \"#utility.yul\":134:139   */\n      dup2\n        /* \"#utility.yul\":107:140   */\n      tag_123\n      jump\t// in\n    tag_122:\n        /* \"#utility.yul\":7:146   */\n      swap3\n      swap2\n      pop\n      pop\n      jump\t// out\n        /* \"#utility.yul\":152:291   */\n    tag_124:\n        /* \"#utility.yul\":198:203   */\n      0x00\n        /* \"#utility.yul\":236:242   */\n      dup2\n        /* \"#utility.yul\":223:243   */\n      calldataload\n        /* \"#utility.yul\":214:243   */\n      swap1\n      pop\n        /* \"#utility.yul\":252:285   */\n      tag_126\n        /* \"#utility.yul\":279:284   */\n      dup2\n        /* \"#utility.yul\":252:285   */\n      tag_127\n      jump\t// in\n    tag_126:\n        /* \"#utility.yul\":152:291   */\n      swap3\n      swap2\n      pop\n      pop\n      jump\t// out\n        /* \"#utility.yul\":297:626   */\n    tag_25:\n        /* \"#utility.yul\":356:362   */\n      0x00\n        /* \"#utility.yul\":405:407   */\n      0x20\n        /* \"#utility.yul\":393:402   */\n      dup3\n        /* \"#utility.yul\":384:391   */\n      dup5\n        /* \"#utility.yul\":380:403   */\n      sub\n        /* \"#utility.yul\":376:408   */\n      slt\n        /* \"#utility.yul\":373:492   */\n      iszero\n      tag_129\n      jumpi\n        /* \"#utility.yul\":411:490   */\n      tag_130\n      tag_131\n      jump\t// in\n    tag_130:\n        /* \"#utility.yul\":373:492   */\n    tag_129:\n        /* \"#utility.yul\":531:532   */\n      0x00\n        /* \"#utility.yul\":556:609   */\n      tag_132\n        /* \"#utility.yul\":601:608   */\n      dup5\n        /* \"#utility.yul\":592:598   */\n      dup3\n        /* \"#utility.yul\":581:590   */\n      dup6\n        /* \"#utility.yul\":577:599   */\n      add\n        /* \"#utility.yul\":556:609   */\n      tag_120\n      jump\t// in\n    tag_132:\n        /* \"#utility.yul\":546:609   */\n      swap2\n      pop\n        /* \"#utility.yul\":502:619   */\n      pop\n        /* \"#utility.yul\":297:626   */\n      swap3\n      swap2\n      pop\n      pop\n      jump\t// out\n        /* \"#utility.yul\":632:1106   */\n    tag_31:\n        /* \"#utility.yul\":700:706   */\n      0x00\n        /* \"#utility.yul\":708:714   */\n      dup1\n        /* \"#utility.yul\":757:759   */\n      0x40\n        /* \"#utility.yul\":745:754   */\n      dup4\n        /* \"#utility.yul\":736:743   */\n      dup6\n        /* \"#utility.yul\":732:755   */\n      sub\n        /* \"#utility.yul\":728:760   */\n      slt\n        /* \"#utility.yul\":725:844   */\n      iszero\n      tag_134\n      jumpi\n        /* \"#utility.yul\":763:842   */\n      tag_135\n      tag_131\n      jump\t// in\n    tag_135:\n        /* \"#utility.yul\":725:844   */\n    tag_134:\n        /* \"#utility.yul\":883:884   */\n      0x00\n        /* \"#utility.yul\":908:961   */\n      tag_136\n        /* \"#utility.yul\":953:960   */\n      dup6\n        /* \"#utility.yul\":944:950   */\n      dup3\n        /* \"#utility.yul\":933:942   */\n      dup7\n        /* \"#utility.yul\":929:951   */\n      add\n        /* \"#utility.yul\":908:961   */\n      tag_120\n      jump\t// in\n    tag_136:\n        /* \"#utility.yul\":898:961   */\n      swap3\n      pop\n        /* \"#utility.yul\":854:971   */\n      pop\n        /* \"#utility.yul\":1010:1012   */\n      0x20\n        /* \"#utility.yul\":1036:1089   */\n      tag_137\n        /* \"#utility.yul\":1081:1088   */\n      dup6\n        /* \"#utility.yul\":1072:1078   */\n      dup3\n        /* \"#utility.yul\":1061:1070   */\n      dup7\n        /* \"#utility.yul\":1057:1079   */\n      add\n        /* \"#utility.yul\":1036:1089   */\n      tag_120\n      jump\t// in\n    tag_137:\n        /* \"#utility.yul\":1026:1089   */\n      swap2\n      pop\n        /* \"#utility.yul\":981:1099   */\n      pop\n        /* \"#utility.yul\":632:1106   */\n      swap3\n      pop\n      swap3\n      swap1\n      pop\n      jump\t// out\n        /* \"#utility.yul\":1112:1586   */\n    tag_17:\n        /* \"#utility.yul\":1180:1186   */\n      0x00\n        /* \"#utility.yul\":1188:1194   */\n      dup1\n        /* \"#utility.yul\":1237:1239   */\n      0x40\n        /* \"#utility.yul\":1225:1234   */\n      dup4\n        /* \"#utility.yul\":1216:1223   */\n      dup6\n        /* \"#utility.yul\":1212:1235   */\n      sub\n        /* \"#utility.yul\":1208:1240   */\n      slt\n        /* \"#utility.yul\":1205:1324   */\n      iszero\n      tag_139\n      jumpi\n        /* \"#utility.yul\":1243:1322   */\n      tag_140\n      tag_131\n      jump\t// in\n    tag_140:\n        /* \"#utility.yul\":1205:1324   */\n    tag_139:\n        /* \"#utility.yul\":1363:1364   */\n      0x00\n        /* \"#utility.yul\":1388:1441   */\n      tag_141\n        /* \"#utility.yul\":1433:1440   */\n      dup6\n        /* \"#utility.yul\":1424:1430   */\n      dup3\n        /* \"#utility.yul\":1413:1422   */\n      dup7\n        /* \"#utility.yul\":1409:1431   */\n      add\n        /* \"#utility.yul\":1388:1441   */\n      tag_124\n      jump\t// in\n    tag_141:\n        /* \"#utility.yul\":1378:1441   */\n      swap3\n      pop\n        /* \"#utility.yul\":1334:1451   */\n      pop\n        /* \"#utility.yul\":1490:1492   */\n      0x20\n        /* \"#utility.yul\":1516:1569   */\n      tag_142\n        /* \"#utility.yul\":1561:1568   */\n      dup6\n        /* \"#utility.yul\":1552:1558   */\n      dup3\n        /* \"#utility.yul\":1541:1550   */\n      dup7\n        /* \"#utility.yul\":1537:1559   */\n      add\n        /* \"#utility.yul\":1516:1569   */\n      tag_120\n      jump\t// in\n    tag_142:\n        /* \"#utility.yul\":1506:1569   */\n      swap2\n      pop\n        /* \"#utility.yul\":1461:1579   */\n      pop\n        /* \"#utility.yul\":1112:1586   */\n      swap3\n      pop\n      swap3\n      swap1\n      pop\n      jump\t// out\n        /* \"#utility.yul\":1592:1771   */\n    tag_143:\n        /* \"#utility.yul\":1661:1671   */\n      0x00\n        /* \"#utility.yul\":1682:1728   */\n      tag_145\n        /* \"#utility.yul\":1724:1727   */\n      dup4\n        /* \"#utility.yul\":1716:1722   */\n      dup4\n        /* \"#utility.yul\":1682:1728   */\n      tag_146\n      jump\t// in\n    tag_145:\n        /* \"#utility.yul\":1760:1764   */\n      0x20\n        /* \"#utility.yul\":1755:1758   */\n      dup4\n        /* \"#utility.yul\":1751:1765   */\n      add\n        /* \"#utility.yul\":1737:1765   */\n      swap1\n      pop\n        /* \"#utility.yul\":1592:1771   */\n      swap3\n      swap2\n      pop\n      pop\n      jump\t// out\n        /* \"#utility.yul\":1777:1885   */\n    tag_146:\n        /* \"#utility.yul\":1854:1878   */\n      tag_148\n        /* \"#utility.yul\":1872:1877   */\n      dup2\n        /* \"#utility.yul\":1854:1878   */\n      tag_149\n      jump\t// in\n    tag_148:\n        /* \"#utility.yul\":1849:1852   */\n      dup3\n        /* \"#utility.yul\":1842:1879   */\n      mstore\n        /* \"#utility.yul\":1777:1885   */\n      pop\n      pop\n      jump\t// out\n        /* \"#utility.yul\":1921:2653   */\n    tag_150:\n        /* \"#utility.yul\":2040:2043   */\n      0x00\n        /* \"#utility.yul\":2069:2123   */\n      tag_152\n        /* \"#utility.yul\":2117:2122   */\n      dup3\n        /* \"#utility.yul\":2069:2123   */\n      tag_153\n      jump\t// in\n    tag_152:\n        /* \"#utility.yul\":2139:2225   */\n      tag_154\n        /* \"#utility.yul\":2218:2224   */\n      dup2\n        /* \"#utility.yul\":2213:2216   */\n      dup6\n        /* \"#utility.yul\":2139:2225   */\n      tag_155\n      jump\t// in\n    tag_154:\n        /* \"#utility.yul\":2132:2225   */\n      swap4\n      pop\n        /* \"#utility.yul\":2249:2305   */\n      tag_156\n        /* \"#utility.yul\":2299:2304   */\n      dup4\n        /* \"#utility.yul\":2249:2305   */\n      tag_157\n      jump\t// in\n    tag_156:\n        /* \"#utility.yul\":2328:2335   */\n      dup1\n        /* \"#utility.yul\":2359:2360   */\n      0x00\n        /* \"#utility.yul\":2344:2628   */\n    tag_158:\n        /* \"#utility.yul\":2369:2375   */\n      dup4\n        /* \"#utility.yul\":2366:2367   */\n      dup2\n        /* \"#utility.yul\":2363:2376   */\n      lt\n        /* \"#utility.yul\":2344:2628   */\n      iszero\n      tag_160\n      jumpi\n        /* \"#utility.yul\":2445:2451   */\n      dup2\n        /* \"#utility.yul\":2439:2452   */\n      mload\n        /* \"#utility.yul\":2472:2535   */\n      tag_161\n        /* \"#utility.yul\":2531:2534   */\n      dup9\n        /* \"#utility.yul\":2516:2529   */\n      dup3\n        /* \"#utility.yul\":2472:2535   */\n      tag_143\n      jump\t// in\n    tag_161:\n        /* \"#utility.yul\":2465:2535   */\n      swap8\n      pop\n        /* \"#utility.yul\":2558:2618   */\n      tag_162\n        /* \"#utility.yul\":2611:2617   */\n      dup4\n        /* \"#utility.yul\":2558:2618   */\n      tag_163\n      jump\t// in\n    tag_162:\n        /* \"#utility.yul\":2548:2618   */\n      swap3\n      pop\n        /* \"#utility.yul\":2404:2628   */\n      pop\n        /* \"#utility.yul\":2391:2392   */\n      0x01\n        /* \"#utility.yul\":2388:2389   */\n      dup2\n        /* \"#utility.yul\":2384:2393   */\n      add\n        /* \"#utility.yul\":2379:2393   */\n      swap1\n      pop\n        /* \"#utility.yul\":2344:2628   */\n      jump(tag_158)\n    tag_160:\n        /* \"#utility.yul\":2348:2362   */\n      pop\n        /* \"#utility.yul\":2644:2647   */\n      dup6\n        /* \"#utility.yul\":2637:2647   */\n      swap4\n      pop\n        /* \"#utility.yul\":2045:2653   */\n      pop\n      pop\n      pop\n        /* \"#utility.yul\":1921:2653   */\n      swap3\n      swap2\n      pop\n      pop\n      jump\t// out\n        /* \"#utility.yul\":2659:3025   */\n    tag_164:\n        /* \"#utility.yul\":2801:2804   */\n      0x00\n        /* \"#utility.yul\":2822:2889   */\n      tag_166\n        /* \"#utility.yul\":2886:2888   */\n      0x1e\n        /* \"#utility.yul\":2881:2884   */\n      dup4\n        /* \"#utility.yul\":2822:2889   */\n      tag_167\n      jump\t// in\n    tag_166:\n        /* \"#utility.yul\":2815:2889   */\n      swap2\n      pop\n        /* \"#utility.yul\":2898:2991   */\n      tag_168\n        /* \"#utility.yul\":2987:2990   */\n      dup3\n        /* \"#utility.yul\":2898:2991   */\n      tag_169\n      jump\t// in\n    tag_168:\n        /* \"#utility.yul\":3016:3018   */\n      0x20\n        /* \"#utility.yul\":3011:3014   */\n      dup3\n        /* \"#utility.yul\":3007:3019   */\n      add\n        /* \"#utility.yul\":3000:3019   */\n      swap1\n      pop\n        /* \"#utility.yul\":2659:3025   */\n      swap2\n      swap1\n      pop\n      jump\t// out\n        /* \"#utility.yul\":3031:3397   */\n    tag_170:\n        /* \"#utility.yul\":3173:3176   */\n      0x00\n        /* \"#utility.yul\":3194:3261   */\n      tag_172\n        /* \"#utility.yul\":3258:3260   */\n      0x0d\n        /* \"#utility.yul\":3253:3256   */\n      dup4\n        /* \"#utility.yul\":3194:3261   */\n      tag_167\n      jump\t// in\n    tag_172:\n        /* \"#utility.yul\":3187:3261   */\n      swap2\n      pop\n        /* \"#utility.yul\":3270:3363   */\n      tag_173\n        /* \"#utility.yul\":3359:3362   */\n      dup3\n        /* \"#utility.yul\":3270:3363   */\n      tag_174\n      jump\t// in\n    tag_173:\n        /* \"#utility.yul\":3388:3390   */\n      0x20\n        /* \"#utility.yul\":3383:3386   */\n      dup3\n        /* \"#utility.yul\":3379:3391   */\n      add\n        /* \"#utility.yul\":3372:3391   */\n      swap1\n      pop\n        /* \"#utility.yul\":3031:3397   */\n      swap2\n      swap1\n      pop\n      jump\t// out\n        /* \"#utility.yul\":3403:3769   */\n    tag_175:\n        /* \"#utility.yul\":3545:3548   */\n      0x00\n        /* \"#utility.yul\":3566:3633   */\n      tag_177\n        /* \"#utility.yul\":3630:3632   */\n      0x2f\n        /* \"#utility.yul\":3625:3628   */\n      dup4\n        /* \"#utility.yul\":3566:3633   */\n      tag_167\n      jump\t// in\n    tag_177:\n        /* \"#utility.yul\":3559:3633   */\n      swap2\n      pop\n        /* \"#utility.yul\":3642:3735   */\n      tag_178\n        /* \"#utility.yul\":3731:3734   */\n      dup3\n        /* \"#utility.yul\":3642:3735   */\n      tag_179\n      jump\t// in\n    tag_178:\n        /* \"#utility.yul\":3760:3762   */\n      0x40\n        /* \"#utility.yul\":3755:3758   */\n      dup3\n        /* \"#utility.yul\":3751:3763   */\n      add\n        /* \"#utility.yul\":3744:3763   */\n      swap1\n      pop\n        /* \"#utility.yul\":3403:3769   */\n      swap2\n      swap1\n      pop\n      jump\t// out\n        /* \"#utility.yul\":3775:4141   */\n    tag_180:\n        /* \"#utility.yul\":3917:3920   */\n      0x00\n        /* \"#utility.yul\":3938:4005   */\n      tag_182\n        /* \"#utility.yul\":4002:4004   */\n      0x26\n        /* \"#utility.yul\":3997:4000   */\n      dup4\n        /* \"#utility.yul\":3938:4005   */\n      tag_167\n      jump\t// in\n    tag_182:\n        /* \"#utility.yul\":3931:4005   */\n      swap2\n      pop\n        /* \"#utility.yul\":4014:4107   */\n      tag_183\n        /* \"#utility.yul\":4103:4106   */\n      dup3\n        /* \"#utility.yul\":4014:4107   */\n      tag_184\n      jump\t// in\n    tag_183:\n        /* \"#utility.yul\":4132:4134   */\n      0x40\n        /* \"#utility.yul\":4127:4130   */\n      dup3\n        /* \"#utility.yul\":4123:4135   */\n      add\n        /* \"#utility.yul\":4116:4135   */\n      swap1\n      pop\n        /* \"#utility.yul\":3775:4141   */\n      swap2\n      swap1\n      pop\n      jump\t// out\n        /* \"#utility.yul\":4147:4265   */\n    tag_185:\n        /* \"#utility.yul\":4234:4258   */\n      tag_187\n        /* \"#utility.yul\":4252:4257   */\n      dup2\n        /* \"#utility.yul\":4234:4258   */\n      tag_188\n      jump\t// in\n    tag_187:\n        /* \"#utility.yul\":4229:4232   */\n      dup3\n        /* \"#utility.yul\":4222:4259   */\n      mstore\n        /* \"#utility.yul\":4147:4265   */\n      pop\n      pop\n      jump\t// out\n        /* \"#utility.yul\":4271:4644   */\n    tag_28:\n        /* \"#utility.yul\":4414:4418   */\n      0x00\n        /* \"#utility.yul\":4452:4454   */\n      0x20\n        /* \"#utility.yul\":4441:4450   */\n      dup3\n        /* \"#utility.yul\":4437:4455   */\n      add\n        /* \"#utility.yul\":4429:4455   */\n      swap1\n      pop\n        /* \"#utility.yul\":4501:4510   */\n      dup2\n        /* \"#utility.yul\":4495:4499   */\n      dup2\n        /* \"#utility.yul\":4491:4511   */\n      sub\n        /* \"#utility.yul\":4487:4488   */\n      0x00\n        /* \"#utility.yul\":4476:4485   */\n      dup4\n        /* \"#utility.yul\":4472:4489   */\n      add\n        /* \"#utility.yul\":4465:4512   */\n      mstore\n        /* \"#utility.yul\":4529:4637   */\n      tag_190\n        /* \"#utility.yul\":4632:4636   */\n      dup2\n        /* \"#utility.yul\":4623:4629   */\n      dup5\n        /* \"#utility.yul\":4529:4637   */\n      tag_150\n      jump\t// in\n    tag_190:\n        /* \"#utility.yul\":4521:4637   */\n      swap1\n      pop\n        /* \"#utility.yul\":4271:4644   */\n      swap3\n      swap2\n      pop\n      pop\n      jump\t// out\n        /* \"#utility.yul\":4650:5069   */\n    tag_47:\n        /* \"#utility.yul\":4816:4820   */\n      0x00\n        /* \"#utility.yul\":4854:4856   */\n      0x20\n        /* \"#utility.yul\":4843:4852   */\n      dup3\n        /* \"#utility.yul\":4839:4857   */\n      add\n        /* \"#utility.yul\":4831:4857   */\n      swap1\n      pop\n        /* \"#utility.yul\":4903:4912   */\n      dup2\n        /* \"#utility.yul\":4897:4901   */\n      dup2\n        /* \"#utility.yul\":4893:4913   */\n      sub\n        /* \"#utility.yul\":4889:4890   */\n      0x00\n        /* \"#utility.yul\":4878:4887   */\n      dup4\n        /* \"#utility.yul\":4874:4891   */\n      add\n        /* \"#utility.yul\":4867:4914   */\n      mstore\n        /* \"#utility.yul\":4931:5062   */\n      tag_192\n        /* \"#utility.yul\":5057:5061   */\n      dup2\n        /* \"#utility.yul\":4931:5062   */\n      tag_164\n      jump\t// in\n    tag_192:\n        /* \"#utility.yul\":4923:5062   */\n      swap1\n      pop\n        /* \"#utility.yul\":4650:5069   */\n      swap2\n      swap1\n      pop\n      jump\t// out\n        /* \"#utility.yul\":5075:5494   */\n    tag_55:\n        /* \"#utility.yul\":5241:5245   */\n      0x00\n        /* \"#utility.yul\":5279:5281   */\n      0x20\n        /* \"#utility.yul\":5268:5277   */\n      dup3\n        /* \"#utility.yul\":5264:5282   */\n      add\n        /* \"#utility.yul\":5256:5282   */\n      swap1\n      pop\n        /* \"#utility.yul\":5328:5337   */\n      dup2\n        /* \"#utility.yul\":5322:5326   */\n      dup2\n        /* \"#utility.yul\":5318:5338   */\n      sub\n        /* \"#utility.yul\":5314:5315   */\n      0x00\n        /* \"#utility.yul\":5303:5312   */\n      dup4\n        /* \"#utility.yul\":5299:5316   */\n      add\n        /* \"#utility.yul\":5292:5339   */\n      mstore\n        /* \"#utility.yul\":5356:5487   */\n      tag_194\n        /* \"#utility.yul\":5482:5486   */\n      dup2\n        /* \"#utility.yul\":5356:5487   */\n      tag_170\n      jump\t// in\n    tag_194:\n        /* \"#utility.yul\":5348:5487   */\n      swap1\n      pop\n        /* \"#utility.yul\":5075:5494   */\n      swap2\n      swap1\n      pop\n      jump\t// out\n        /* \"#utility.yul\":5500:5919   */\n    tag_91:\n        /* \"#utility.yul\":5666:5670   */\n      0x00\n        /* \"#utility.yul\":5704:5706   */\n      0x20\n        /* \"#utility.yul\":5693:5702   */\n      dup3\n        /* \"#utility.yul\":5689:5707   */\n      add\n        /* \"#utility.yul\":5681:5707   */\n      swap1\n      pop\n        /* \"#utility.yul\":5753:5762   */\n      dup2\n        /* \"#utility.yul\":5747:5751   */\n      dup2\n        /* \"#utility.yul\":5743:5763   */\n      sub\n        /* \"#utility.yul\":5739:5740   */\n      0x00\n        /* \"#utility.yul\":5728:5737   */\n      dup4\n        /* \"#utility.yul\":5724:5741   */\n      add\n        /* \"#utility.yul\":5717:5764   */\n      mstore\n        /* \"#utility.yul\":5781:5912   */\n      tag_196\n        /* \"#utility.yul\":5907:5911   */\n      dup2\n        /* \"#utility.yul\":5781:5912   */\n      tag_175\n      jump\t// in\n    tag_196:\n        /* \"#utility.yul\":5773:5912   */\n      swap1\n      pop\n        /* \"#utility.yul\":5500:5919   */\n      swap2\n      swap1\n      pop\n      jump\t// out\n        /* \"#utility.yul\":5925:6344   */\n    tag_52:\n        /* \"#utility.yul\":6091:6095   */\n      0x00\n        /* \"#utility.yul\":6129:6131   */\n      0x20\n        /* \"#utility.yul\":6118:6127   */\n      dup3\n        /* \"#utility.yul\":6114:6132   */\n      add\n        /* \"#utility.yul\":6106:6132   */\n      swap1\n      pop\n        /* \"#utility.yul\":6178:6187   */\n      dup2\n        /* \"#utility.yul\":6172:6176   */\n      dup2\n        /* \"#utility.yul\":6168:6188   */\n      sub\n        /* \"#utility.yul\":6164:6165   */\n      0x00\n        /* \"#utility.yul\":6153:6162   */\n      dup4\n        /* \"#utility.yul\":6149:6166   */\n      add\n        /* \"#utility.yul\":6142:6189   */\n      mstore\n        /* \"#utility.yul\":6206:6337   */\n      tag_198\n        /* \"#utility.yul\":6332:6336   */\n      dup2\n        /* \"#utility.yul\":6206:6337   */\n      tag_180\n      jump\t// in\n    tag_198:\n        /* \"#utility.yul\":6198:6337   */\n      swap1\n      pop\n        /* \"#utility.yul\":5925:6344   */\n      swap2\n      swap1\n      pop\n      jump\t// out\n        /* \"#utility.yul\":6350:6572   */\n    tag_14:\n        /* \"#utility.yul\":6443:6447   */\n      0x00\n        /* \"#utility.yul\":6481:6483   */\n      0x20\n        /* \"#utility.yul\":6470:6479   */\n      dup3\n        /* \"#utility.yul\":6466:6484   */\n      add\n        /* \"#utility.yul\":6458:6484   */\n      swap1\n      pop\n        /* \"#utility.yul\":6494:6565   */\n      tag_200\n        /* \"#utility.yul\":6562:6563   */\n      0x00\n        /* \"#utility.yul\":6551:6560   */\n      dup4\n        /* \"#utility.yul\":6547:6564   */\n      add\n        /* \"#utility.yul\":6538:6544   */\n      dup5\n        /* \"#utility.yul\":6494:6565   */\n      tag_185\n      jump\t// in\n    tag_200:\n        /* \"#utility.yul\":6350:6572   */\n      swap3\n      swap2\n      pop\n      pop\n      jump\t// out\n        /* \"#utility.yul\":6659:6791   */\n    tag_157:\n        /* \"#utility.yul\":6726:6730   */\n      0x00\n        /* \"#utility.yul\":6749:6752   */\n      dup2\n        /* \"#utility.yul\":6741:6752   */\n      swap1\n      pop\n        /* \"#utility.yul\":6779:6783   */\n      0x20\n        /* \"#utility.yul\":6774:6777   */\n      dup3\n        /* \"#utility.yul\":6770:6784   */\n      add\n        /* \"#utility.yul\":6762:6784   */\n      swap1\n      pop\n        /* \"#utility.yul\":6659:6791   */\n      swap2\n      swap1\n      pop\n      jump\t// out\n        /* \"#utility.yul\":6797:6911   */\n    tag_153:\n        /* \"#utility.yul\":6864:6870   */\n      0x00\n        /* \"#utility.yul\":6898:6903   */\n      dup2\n        /* \"#utility.yul\":6892:6904   */\n      mload\n        /* \"#utility.yul\":6882:6904   */\n      swap1\n      pop\n        /* \"#utility.yul\":6797:6911   */\n      swap2\n      swap1\n      pop\n      jump\t// out\n        /* \"#utility.yul\":6917:7030   */\n    tag_163:\n        /* \"#utility.yul\":6987:6991   */\n      0x00\n        /* \"#utility.yul\":7019:7023   */\n      0x20\n        /* \"#utility.yul\":7014:7017   */\n      dup3\n        /* \"#utility.yul\":7010:7024   */\n      add\n        /* \"#utility.yul\":7002:7024   */\n      swap1\n      pop\n        /* \"#utility.yul\":6917:7030   */\n      swap2\n      swap1\n      pop\n      jump\t// out\n        /* \"#utility.yul\":7036:7220   */\n    tag_155:\n        /* \"#utility.yul\":7135:7146   */\n      0x00\n        /* \"#utility.yul\":7169:7175   */\n      dup3\n        /* \"#utility.yul\":7164:7167   */\n      dup3\n        /* \"#utility.yul\":7157:7176   */\n      mstore\n        /* \"#utility.yul\":7209:7213   */\n      0x20\n        /* \"#utility.yul\":7204:7207   */\n      dup3\n        /* \"#utility.yul\":7200:7214   */\n      add\n        /* \"#utility.yul\":7185:7214   */\n      swap1\n      pop\n        /* \"#utility.yul\":7036:7220   */\n      swap3\n      swap2\n      pop\n      pop\n      jump\t// out\n        /* \"#utility.yul\":7226:7395   */\n    tag_167:\n        /* \"#utility.yul\":7310:7321   */\n      0x00\n        /* \"#utility.yul\":7344:7350   */\n      dup3\n        /* \"#utility.yul\":7339:7342   */\n      dup3\n        /* \"#utility.yul\":7332:7351   */\n      mstore\n        /* \"#utility.yul\":7384:7388   */\n      0x20\n        /* \"#utility.yul\":7379:7382   */\n      dup3\n        /* \"#utility.yul\":7375:7389   */\n      add\n        /* \"#utility.yul\":7360:7389   */\n      swap1\n      pop\n        /* \"#utility.yul\":7226:7395   */\n      swap3\n      swap2\n      pop\n      pop\n      jump\t// out\n        /* \"#utility.yul\":7401:7706   */\n    tag_58:\n        /* \"#utility.yul\":7441:7444   */\n      0x00\n        /* \"#utility.yul\":7460:7480   */\n      tag_209\n        /* \"#utility.yul\":7478:7479   */\n      dup3\n        /* \"#utility.yul\":7460:7480   */\n      tag_188\n      jump\t// in\n    tag_209:\n        /* \"#utility.yul\":7455:7480   */\n      swap2\n      pop\n        /* \"#utility.yul\":7494:7514   */\n      tag_210\n        /* \"#utility.yul\":7512:7513   */\n      dup4\n        /* \"#utility.yul\":7494:7514   */\n      tag_188\n      jump\t// in\n    tag_210:\n        /* \"#utility.yul\":7489:7514   */\n      swap3\n      pop\n        /* \"#utility.yul\":7648:7649   */\n      dup3\n        /* \"#utility.yul\":7580:7646   */\n      0xffffffffffffffffffffffffffffffffffffffffffffffffffffffffffffffff\n        /* \"#utility.yul\":7576:7650   */\n      sub\n        /* \"#utility.yul\":7573:7574   */\n      dup3\n        /* \"#utility.yul\":7570:7651   */\n      gt\n        /* \"#utility.yul\":7567:7674   */\n      iszero\n      tag_211\n      jumpi\n        /* \"#utility.yul\":7654:7672   */\n      tag_212\n      tag_213\n      jump\t// in\n    tag_212:\n        /* \"#utility.yul\":7567:7674   */\n    tag_211:\n        /* \"#utility.yul\":7698:7699   */\n      dup3\n        /* \"#utility.yul\":7695:7696   */\n      dup3\n        /* \"#utility.yul\":7691:7700   */\n      add\n        /* \"#utility.yul\":7684:7700   */\n      swap1\n      pop\n        /* \"#utility.yul\":7401:7706   */\n      swap3\n      swap2\n      pop\n      pop\n      jump\t// out\n        /* \"#utility.yul\":7712:7808   */\n    tag_149:\n        /* \"#utility.yul\":7749:7756   */\n      0x00\n        /* \"#utility.yul\":7778:7802   */\n      tag_215\n        /* \"#utility.yul\":7796:7801   */\n      dup3\n        /* \"#utility.yul\":7778:7802   */\n      tag_216\n      jump\t// in\n    tag_215:\n        /* \"#utility.yul\":7767:7802   */\n      swap1\n      pop\n        /* \"#utility.yul\":7712:7808   */\n      swap2\n      swap1\n      pop\n      jump\t// out\n        /* \"#utility.yul\":7814:7940   */\n    tag_216:\n        /* \"#utility.yul\":7851:7858   */\n      0x00\n        /* \"#utility.yul\":7891:7933   */\n      0xffffffffffffffffffffffffffffffffffffffff\n        /* \"#utility.yul\":7884:7889   */\n      dup3\n        /* \"#utility.yul\":7880:7934   */\n      and\n        /* \"#utility.yul\":7869:7934   */\n      swap1\n      pop\n        /* \"#utility.yul\":7814:7940   */\n      swap2\n      swap1\n      pop\n      jump\t// out\n        /* \"#utility.yul\":7946:8023   */\n    tag_188:\n        /* \"#utility.yul\":7983:7990   */\n      0x00\n        /* \"#utility.yul\":8012:8017   */\n      dup2\n        /* \"#utility.yul\":8001:8017   */\n      swap1\n      pop\n        /* \"#utility.yul\":7946:8023   */\n      swap2\n      swap1\n      pop\n      jump\t// out\n        /* \"#utility.yul\":8029:8262   */\n    tag_107:\n        /* \"#utility.yul\":8068:8071   */\n      0x00\n        /* \"#utility.yul\":8091:8115   */\n      tag_220\n        /* \"#utility.yul\":8109:8114   */\n      dup3\n        /* \"#utility.yul\":8091:8115   */\n      tag_188\n      jump\t// in\n    tag_220:\n        /* \"#utility.yul\":8082:8115   */\n      swap2\n      pop\n        /* \"#utility.yul\":8137:8203   */\n      0xffffffffffffffffffffffffffffffffffffffffffffffffffffffffffffffff\n        /* \"#utility.yul\":8130:8135   */\n      dup3\n        /* \"#utility.yul\":8127:8204   */\n      eq\n        /* \"#utility.yul\":8124:8227   */\n      iszero\n      tag_221\n      jumpi\n        /* \"#utility.yul\":8207:8225   */\n      tag_222\n      tag_213\n      jump\t// in\n    tag_222:\n        /* \"#utility.yul\":8124:8227   */\n    tag_221:\n        /* \"#utility.yul\":8254:8255   */\n      0x01\n        /* \"#utility.yul\":8247:8252   */\n      dup3\n        /* \"#utility.yul\":8243:8256   */\n      add\n        /* \"#utility.yul\":8236:8256   */\n      swap1\n      pop\n        /* \"#utility.yul\":8029:8262   */\n      swap2\n      swap1\n      pop\n      jump\t// out\n        /* \"#utility.yul\":8268:8448   */\n    tag_213:\n        /* \"#utility.yul\":8316:8393   */\n      0x4e487b7100000000000000000000000000000000000000000000000000000000\n        /* \"#utility.yul\":8313:8314   */\n      0x00\n        /* \"#utility.yul\":8306:8394   */\n      mstore\n        /* \"#utility.yul\":8413:8417   */\n      0x11\n        /* \"#utility.yul\":8410:8411   */\n      0x04\n        /* \"#utility.yul\":8403:8418   */\n      mstore\n        /* \"#utility.yul\":8437:8441   */\n      0x24\n        /* \"#utility.yul\":8434:8435   */\n      0x00\n        /* \"#utility.yul\":8427:8442   */\n      revert\n        /* \"#utility.yul\":8454:8634   */\n    tag_103:\n        /* \"#utility.yul\":8502:8579   */\n      0x4e487b7100000000000000000000000000000000000000000000000000000000\n        /* \"#utility.yul\":8499:8500   */\n      0x00\n        /* \"#utility.yul\":8492:8580   */\n      mstore\n        /* \"#utility.yul\":8599:8603   */\n      0x32\n        /* \"#utility.yul\":8596:8597   */\n      0x04\n        /* \"#utility.yul\":8589:8604   */\n      mstore\n        /* \"#utility.yul\":8623:8627   */\n      0x24\n        /* \"#utility.yul\":8620:8621   */\n      0x00\n        /* \"#utility.yul\":8613:8628   */\n      revert\n        /* \"#utility.yul\":8640:8820   */\n    tag_74:\n        /* \"#utility.yul\":8688:8765   */\n      0x4e487b7100000000000000000000000000000000000000000000000000000000\n        /* \"#utility.yul\":8685:8686   */\n      0x00\n        /* \"#utility.yul\":8678:8766   */\n      mstore\n        /* \"#utility.yul\":8785:8789   */\n      0x41\n        /* \"#utility.yul\":8782:8783   */\n      0x04\n        /* \"#utility.yul\":8775:8790   */\n      mstore\n        /* \"#utility.yul\":8809:8813   */\n      0x24\n        /* \"#utility.yul\":8806:8807   */\n      0x00\n        /* \"#utility.yul\":8799:8814   */\n      revert\n        /* \"#utility.yul\":8949:9066   */\n    tag_131:\n        /* \"#utility.yul\":9058:9059   */\n      0x00\n        /* \"#utility.yul\":9055:9056   */\n      dup1\n        /* \"#utility.yul\":9048:9060   */\n      revert\n        /* \"#utility.yul\":9072:9252   */\n    tag_169:\n        /* \"#utility.yul\":9212:9244   */\n      0x506c6561736520656e7465722074686520636f72726563742076616c75650000\n        /* \"#utility.yul\":9208:9209   */\n      0x00\n        /* \"#utility.yul\":9200:9206   */\n      dup3\n        /* \"#utility.yul\":9196:9210   */\n      add\n        /* \"#utility.yul\":9189:9245   */\n      mstore\n        /* \"#utility.yul\":9072:9252   */\n      pop\n      jump\t// out\n        /* \"#utility.yul\":9258:9421   */\n    tag_174:\n        /* \"#utility.yul\":9398:9413   */\n      0x416c726561647920766f74656400000000000000000000000000000000000000\n        /* \"#utility.yul\":9394:9395   */\n      0x00\n        /* \"#utility.yul\":9386:9392   */\n      dup3\n        /* \"#utility.yul\":9382:9396   */\n      add\n        /* \"#utility.yul\":9375:9414   */\n      mstore\n        /* \"#utility.yul\":9258:9421   */\n      pop\n      jump\t// out\n        /* \"#utility.yul\":9427:9661   */\n    tag_179:\n        /* \"#utility.yul\":9567:9601   */\n      0x546865206e756d626572206f6620696e7669746174696f6e7320686173206578\n        /* \"#utility.yul\":9563:9564   */\n      0x00\n        /* \"#utility.yul\":9555:9561   */\n      dup3\n        /* \"#utility.yul\":9551:9565   */\n      add\n        /* \"#utility.yul\":9544:9602   */\n      mstore\n        /* \"#utility.yul\":9636:9653   */\n      0x63656564656420362070656f706c650000000000000000000000000000000000\n        /* \"#utility.yul\":9631:9633   */\n      0x20\n        /* \"#utility.yul\":9623:9629   */\n      dup3\n        /* \"#utility.yul\":9619:9634   */\n      add\n        /* \"#utility.yul\":9612:9654   */\n      mstore\n        /* \"#utility.yul\":9427:9661   */\n      pop\n      jump\t// out\n        /* \"#utility.yul\":9667:9892   */\n    tag_184:\n        /* \"#utility.yul\":9807:9841   */\n      0x506c6561736520636f6e746163742036366363666640686973746f7279626c6f\n        /* \"#utility.yul\":9803:9804   */\n      0x00\n        /* \"#utility.yul\":9795:9801   */\n      dup3\n        /* \"#utility.yul\":9791:9805   */\n      add\n        /* \"#utility.yul\":9784:9842   */\n      mstore\n        /* \"#utility.yul\":9876:9884   */\n      0x636b2e6f72670000000000000000000000000000000000000000000000000000\n        /* \"#utility.yul\":9871:9873   */\n      0x20\n        /* \"#utility.yul\":9863:9869   */\n      dup3\n        /* \"#utility.yul\":9859:9874   */\n      add\n        /* \"#utility.yul\":9852:9885   */\n      mstore\n        /* \"#utility.yul\":9667:9892   */\n      pop\n      jump\t// out\n        /* \"#utility.yul\":9898:10020   */\n    tag_123:\n        /* \"#utility.yul\":9971:9995   */\n      tag_234\n        /* \"#utility.yul\":9989:9994   */\n      dup2\n        /* \"#utility.yul\":9971:9995   */\n      tag_149\n      jump\t// in\n    tag_234:\n        /* \"#utility.yul\":9964:9969   */\n      dup2\n        /* \"#utility.yul\":9961:9996   */\n      eq\n        /* \"#utility.yul\":9951:10014   */\n      tag_235\n      jumpi\n        /* \"#utility.yul\":10010:10011   */\n      0x00\n        /* \"#utility.yul\":10007:10008   */\n      dup1\n        /* \"#utility.yul\":10000:10012   */\n      revert\n        /* \"#utility.yul\":9951:10014   */\n    tag_235:\n        /* \"#utility.yul\":9898:10020   */\n      pop\n      jump\t// out\n        /* \"#utility.yul\":10026:10148   */\n    tag_127:\n        /* \"#utility.yul\":10099:10123   */\n      tag_237\n        /* \"#utility.yul\":10117:10122   */\n      dup2\n        /* \"#utility.yul\":10099:10123   */\n      tag_188\n      jump\t// in\n    tag_237:\n        /* \"#utility.yul\":10092:10097   */\n      dup2\n        /* \"#utility.yul\":10089:10124   */\n      eq\n        /* \"#utility.yul\":10079:10142   */\n      tag_238\n      jumpi\n        /* \"#utility.yul\":10138:10139   */\n      0x00\n        /* \"#utility.yul\":10135:10136   */\n      dup1\n        /* \"#utility.yul\":10128:10140   */\n      revert\n        /* \"#utility.yul\":10079:10142   */\n    tag_238:\n        /* \"#utility.yul\":10026:10148   */\n      pop\n      jump\t// out\n\n    auxdata: 0xa264697066735822122075709b6dfcdab70f34b6868a60890c815df5a4b551e94f8c5e55ad2d9a2936bd64736f6c63430008070033\n}\n",
				"bytecode": {
					"linkReferences": {},
					"object": "60806040526000805560006001556000600255600060035534801561002357600080fd5b5033600660006101000a81548173ffffffffffffffffffffffffffffffffffffffff021916908373ffffffffffffffffffffffffffffffffffffffff160217905550610fd8806100746000396000f3fe608060405234801561001057600080fd5b506004361061007d5760003560e01c80633fc69d471161005b5780633fc69d47146100ee5780636f4c64431461011e578063d349973c1461014e578063dde23de81461016c5761007d565b80630f5dbb50146100825780633017a1d8146100a05780633a1c4a25146100d0575b600080fd5b61008a61019c565b6040516100979190610cb2565b60405180910390f35b6100ba60048036038101906100b59190610ab0565b6101a6565b6040516100c79190610cb2565b60405180910390f35b6100d86103a8565b6040516100e59190610cb2565b60405180910390f35b61010860048036038101906101039190610a43565b6103b2565b6040516101159190610c10565b60405180910390f35b61013860048036038101906101339190610a70565b61047f565b6040516101459190610cb2565b60405180910390f35b6101566107ba565b6040516101639190610cb2565b60405180910390f35b61018660048036038101906101819190610a43565b6107c4565b6040516101939190610cb2565b60405180910390f35b6000600154905090565b600060018314806101b75750600283145b806101c25750600383145b610201576040517f08c379a00000000000000000000000000000000000000000000000000000000081526004016101f890610c32565b60405180910390fd5b6000151561020e8361080d565b15151415610251576040517f08c379a000000000000000000000000000000000000000000000000000000000815260040161024890610c92565b60405180910390fd5b6000600560003373ffffffffffffffffffffffffffffffffffffffff1673ffffffffffffffffffffffffffffffffffffffff16815260200190815260200160002054146102d3576040517f08c379a00000000000000000000000000000000000000000000000000000000081526004016102ca90610c52565b60405180910390fd5b82600560003373ffffffffffffffffffffffffffffffffffffffff1673ffffffffffffffffffffffffffffffffffffffff168152602001908152602001600020819055506001831415610344576001600360008282546103339190610d17565b9250508190555060035490506103a2565b6002831415610371576001600260008282546103609190610d17565b9250508190555060025490506103a2565b600383141561039d57600180600082825461038c9190610d17565b9250508190555060015490506103a2565b600090505b92915050565b6000600154905090565b6060600460008373ffffffffffffffffffffffffffffffffffffffff1673ffffffffffffffffffffffffffffffffffffffff16815260200190815260200160002080548060200260200160405190810160405280929190818152602001828054801561047357602002820191906000526020600020905b8160009054906101000a900473ffffffffffffffffffffffffffffffffffffffff1673ffffffffffffffffffffffffffffffffffffffff1681526020019060010190808311610429575b50505050509050919050565b6000806000541480156104df57503373ffffffffffffffffffffffffffffffffffffffff16600660009054906101000a900473ffffffffffffffffffffffffffffffffffffffff1673ffffffffffffffffffffffffffffffffffffffff16145b1561060c57600067ffffffffffffffff8111156104ff576104fe610e50565b5b60405190808252806020026020018201604052801561052d5781602001602082028036833780820191505090505b5060079080519060200190610543929190610920565b506007839080600181540180825580915050600190039060005260206000200160009091909190916101000a81548173ffffffffffffffffffffffffffffffffffffffff021916908373ffffffffffffffffffffffffffffffffffffffff1602179055506007600460003373ffffffffffffffffffffffffffffffffffffffff1673ffffffffffffffffffffffffffffffffffffffff1681526020019081526020016000209080546105f69291906109aa565b50600160008190555060078054905090506107b4565b600015156106198361080d565b1515141561065c576040517f08c379a000000000000000000000000000000000000000000000000000000000815260040161065390610c92565b60405180910390fd5b600460003373ffffffffffffffffffffffffffffffffffffffff1673ffffffffffffffffffffffffffffffffffffffff16815260200190815260200160002060079080546106ab9291906109aa565b506007839080600181540180825580915050600190039060005260206000200160009091909190916101000a81548173ffffffffffffffffffffffffffffffffffffffff021916908373ffffffffffffffffffffffffffffffffffffffff160217905550600660078054905011610779576007600460003373ffffffffffffffffffffffffffffffffffffffff1673ffffffffffffffffffffffffffffffffffffffff16815260200190815260200160002090805461076b9291906109aa565b5060078054905090506107b4565b6040517f08c379a00000000000000000000000000000000000000000000000000000000081526004016107ab90610c72565b60405180910390fd5b92915050565b6000600254905090565b6000600560008373ffffffffffffffffffffffffffffffffffffffff1673ffffffffffffffffffffffffffffffffffffffff168152602001908152602001600020549050919050565b6000600460008373ffffffffffffffffffffffffffffffffffffffff1673ffffffffffffffffffffffffffffffffffffffff168152602001908152602001600020600790805461085e9291906109aa565b5060006007805490501415610876576000905061091b565b60005b600780549050811015610915573373ffffffffffffffffffffffffffffffffffffffff16600782815481106108b1576108b0610e21565b5b9060005260206000200160009054906101000a900473ffffffffffffffffffffffffffffffffffffffff1673ffffffffffffffffffffffffffffffffffffffff16141561090257600191505061091b565b808061090d90610da9565b915050610879565b50600090505b919050565b828054828255906000526020600020908101928215610999579160200282015b828111156109985782518260006101000a81548173ffffffffffffffffffffffffffffffffffffffff021916908373ffffffffffffffffffffffffffffffffffffffff16021790555091602001919060010190610940565b5b5090506109a691906109fc565b5090565b8280548282559060005260206000209081019282156109eb5760005260206000209182015b828111156109ea5782548255916001019190600101906109cf565b5b5090506109f891906109fc565b5090565b5b80821115610a155760008160009055506001016109fd565b5090565b600081359050610a2881610f74565b92915050565b600081359050610a3d81610f8b565b92915050565b600060208284031215610a5957610a58610e7f565b5b6000610a6784828501610a19565b91505092915050565b60008060408385031215610a8757610a86610e7f565b5b6000610a9585828601610a19565b9250506020610aa685828601610a19565b9150509250929050565b60008060408385031215610ac757610ac6610e7f565b5b6000610ad585828601610a2e565b9250506020610ae685828601610a19565b9150509250929050565b6000610afc8383610b08565b60208301905092915050565b610b1181610d6d565b82525050565b6000610b2282610cdd565b610b2c8185610cf5565b9350610b3783610ccd565b8060005b83811015610b68578151610b4f8882610af0565b9750610b5a83610ce8565b925050600181019050610b3b565b5085935050505092915050565b6000610b82601e83610d06565b9150610b8d82610e84565b602082019050919050565b6000610ba5600d83610d06565b9150610bb082610ead565b602082019050919050565b6000610bc8602f83610d06565b9150610bd382610ed6565b604082019050919050565b6000610beb602683610d06565b9150610bf682610f25565b604082019050919050565b610c0a81610d9f565b82525050565b60006020820190508181036000830152610c2a8184610b17565b905092915050565b60006020820190508181036000830152610c4b81610b75565b9050919050565b60006020820190508181036000830152610c6b81610b98565b9050919050565b60006020820190508181036000830152610c8b81610bbb565b9050919050565b60006020820190508181036000830152610cab81610bde565b9050919050565b6000602082019050610cc76000830184610c01565b92915050565b6000819050602082019050919050565b600081519050919050565b6000602082019050919050565b600082825260208201905092915050565b600082825260208201905092915050565b6000610d2282610d9f565b9150610d2d83610d9f565b9250827fffffffffffffffffffffffffffffffffffffffffffffffffffffffffffffffff03821115610d6257610d61610df2565b5b828201905092915050565b6000610d7882610d7f565b9050919050565b600073ffffffffffffffffffffffffffffffffffffffff82169050919050565b6000819050919050565b6000610db482610d9f565b91507fffffffffffffffffffffffffffffffffffffffffffffffffffffffffffffffff821415610de757610de6610df2565b5b600182019050919050565b7f4e487b7100000000000000000000000000000000000000000000000000000000600052601160045260246000fd5b7f4e487b7100000000000000000000000000000000000000000000000000000000600052603260045260246000fd5b7f4e487b7100000000000000000000000000000000000000000000000000000000600052604160045260246000fd5b600080fd5b7f506c6561736520656e7465722074686520636f72726563742076616c75650000600082015250565b7f416c726561647920766f74656400000000000000000000000000000000000000600082015250565b7f546865206e756d626572206f6620696e7669746174696f6e732068617320657860008201527f63656564656420362070656f706c650000000000000000000000000000000000602082015250565b7f506c6561736520636f6e746163742036366363666640686973746f7279626c6f60008201527f636b2e6f72670000000000000000000000000000000000000000000000000000602082015250565b610f7d81610d6d565b8114610f8857600080fd5b50565b610f9481610d9f565b8114610f9f57600080fd5b5056fea264697066735822122075709b6dfcdab70f34b6868a60890c815df5a4b551e94f8c5e55ad2d9a2936bd64736f6c63430008070033",
					"opcodes": "PUSH1 0x80 PUSH1 0x40 MSTORE PUSH1 0x0 DUP1 SSTORE PUSH1 0x0 PUSH1 0x1 SSTORE PUSH1 0x0 PUSH1 0x2 SSTORE PUSH1 0x0 PUSH1 0x3 SSTORE CALLVALUE DUP1 ISZERO PUSH2 0x23 JUMPI PUSH1 0x0 DUP1 REVERT JUMPDEST POP CALLER PUSH1 0x6 PUSH1 0x0 PUSH2 0x100 EXP DUP2 SLOAD DUP2 PUSH20 0xFFFFFFFFFFFFFFFFFFFFFFFFFFFFFFFFFFFFFFFF MUL NOT AND SWAP1 DUP4 PUSH20 0xFFFFFFFFFFFFFFFFFFFFFFFFFFFFFFFFFFFFFFFF AND MUL OR SWAP1 SSTORE POP PUSH2 0xFD8 DUP1 PUSH2 0x74 PUSH1 0x0 CODECOPY PUSH1 0x0 RETURN INVALID PUSH1 0x80 PUSH1 0x40 MSTORE CALLVALUE DUP1 ISZERO PUSH2 0x10 JUMPI PUSH1 0x0 DUP1 REVERT JUMPDEST POP PUSH1 0x4 CALLDATASIZE LT PUSH2 0x7D JUMPI PUSH1 0x0 CALLDATALOAD PUSH1 0xE0 SHR DUP1 PUSH4 0x3FC69D47 GT PUSH2 0x5B JUMPI DUP1 PUSH4 0x3FC69D47 EQ PUSH2 0xEE JUMPI DUP1 PUSH4 0x6F4C6443 EQ PUSH2 0x11E JUMPI DUP1 PUSH4 0xD349973C EQ PUSH2 0x14E JUMPI DUP1 PUSH4 0xDDE23DE8 EQ PUSH2 0x16C JUMPI PUSH2 0x7D JUMP JUMPDEST DUP1 PUSH4 0xF5DBB50 EQ PUSH2 0x82 JUMPI DUP1 PUSH4 0x3017A1D8 EQ PUSH2 0xA0 JUMPI DUP1 PUSH4 0x3A1C4A25 EQ PUSH2 0xD0 JUMPI JUMPDEST PUSH1 0x0 DUP1 REVERT JUMPDEST PUSH2 0x8A PUSH2 0x19C JUMP JUMPDEST PUSH1 0x40 MLOAD PUSH2 0x97 SWAP2 SWAP1 PUSH2 0xCB2 JUMP JUMPDEST PUSH1 0x40 MLOAD DUP1 SWAP2 SUB SWAP1 RETURN JUMPDEST PUSH2 0xBA PUSH1 0x4 DUP1 CALLDATASIZE SUB DUP2 ADD SWAP1 PUSH2 0xB5 SWAP2 SWAP1 PUSH2 0xAB0 JUMP JUMPDEST PUSH2 0x1A6 JUMP JUMPDEST PUSH1 0x40 MLOAD PUSH2 0xC7 SWAP2 SWAP1 PUSH2 0xCB2 JUMP JUMPDEST PUSH1 0x40 MLOAD DUP1 SWAP2 SUB SWAP1 RETURN JUMPDEST PUSH2 0xD8 PUSH2 0x3A8 JUMP JUMPDEST PUSH1 0x40 MLOAD PUSH2 0xE5 SWAP2 SWAP1 PUSH2 0xCB2 JUMP JUMPDEST PUSH1 0x40 MLOAD DUP1 SWAP2 SUB SWAP1 RETURN JUMPDEST PUSH2 0x108 PUSH1 0x4 DUP1 CALLDATASIZE SUB DUP2 ADD SWAP1 PUSH2 0x103 SWAP2 SWAP1 PUSH2 0xA43 JUMP JUMPDEST PUSH2 0x3B2 JUMP JUMPDEST PUSH1 0x40 MLOAD PUSH2 0x115 SWAP2 SWAP1 PUSH2 0xC10 JUMP JUMPDEST PUSH1 0x40 MLOAD DUP1 SWAP2 SUB SWAP1 RETURN JUMPDEST PUSH2 0x138 PUSH1 0x4 DUP1 CALLDATASIZE SUB DUP2 ADD SWAP1 PUSH2 0x133 SWAP2 SWAP1 PUSH2 0xA70 JUMP JUMPDEST PUSH2 0x47F JUMP JUMPDEST PUSH1 0x40 MLOAD PUSH2 0x145 SWAP2 SWAP1 PUSH2 0xCB2 JUMP JUMPDEST PUSH1 0x40 MLOAD DUP1 SWAP2 SUB SWAP1 RETURN JUMPDEST PUSH2 0x156 PUSH2 0x7BA JUMP JUMPDEST PUSH1 0x40 MLOAD PUSH2 0x163 SWAP2 SWAP1 PUSH2 0xCB2 JUMP JUMPDEST PUSH1 0x40 MLOAD DUP1 SWAP2 SUB SWAP1 RETURN JUMPDEST PUSH2 0x186 PUSH1 0x4 DUP1 CALLDATASIZE SUB DUP2 ADD SWAP1 PUSH2 0x181 SWAP2 SWAP1 PUSH2 0xA43 JUMP JUMPDEST PUSH2 0x7C4 JUMP JUMPDEST PUSH1 0x40 MLOAD PUSH2 0x193 SWAP2 SWAP1 PUSH2 0xCB2 JUMP JUMPDEST PUSH1 0x40 MLOAD DUP1 SWAP2 SUB SWAP1 RETURN JUMPDEST PUSH1 0x0 PUSH1 0x1 SLOAD SWAP1 POP SWAP1 JUMP JUMPDEST PUSH1 0x0 PUSH1 0x1 DUP4 EQ DUP1 PUSH2 0x1B7 JUMPI POP PUSH1 0x2 DUP4 EQ JUMPDEST DUP1 PUSH2 0x1C2 JUMPI POP PUSH1 0x3 DUP4 EQ JUMPDEST PUSH2 0x201 JUMPI PUSH1 0x40 MLOAD PUSH32 0x8C379A000000000000000000000000000000000000000000000000000000000 DUP2 MSTORE PUSH1 0x4 ADD PUSH2 0x1F8 SWAP1 PUSH2 0xC32 JUMP JUMPDEST PUSH1 0x40 MLOAD DUP1 SWAP2 SUB SWAP1 REVERT JUMPDEST PUSH1 0x0 ISZERO ISZERO PUSH2 0x20E DUP4 PUSH2 0x80D JUMP JUMPDEST ISZERO ISZERO EQ ISZERO PUSH2 0x251 JUMPI PUSH1 0x40 MLOAD PUSH32 0x8C379A000000000000000000000000000000000000000000000000000000000 DUP2 MSTORE PUSH1 0x4 ADD PUSH2 0x248 SWAP1 PUSH2 0xC92 JUMP JUMPDEST PUSH1 0x40 MLOAD DUP1 SWAP2 SUB SWAP1 REVERT JUMPDEST PUSH1 0x0 PUSH1 0x5 PUSH1 0x0 CALLER PUSH20 0xFFFFFFFFFFFFFFFFFFFFFFFFFFFFFFFFFFFFFFFF AND PUSH20 0xFFFFFFFFFFFFFFFFFFFFFFFFFFFFFFFFFFFFFFFF AND DUP2 MSTORE PUSH1 0x20 ADD SWAP1 DUP2 MSTORE PUSH1 0x20 ADD PUSH1 0x0 KECCAK256 SLOAD EQ PUSH2 0x2D3 JUMPI PUSH1 0x40 MLOAD PUSH32 0x8C379A000000000000000000000000000000000000000000000000000000000 DUP2 MSTORE PUSH1 0x4 ADD PUSH2 0x2CA SWAP1 PUSH2 0xC52 JUMP JUMPDEST PUSH1 0x40 MLOAD DUP1 SWAP2 SUB SWAP1 REVERT JUMPDEST DUP3 PUSH1 0x5 PUSH1 0x0 CALLER PUSH20 0xFFFFFFFFFFFFFFFFFFFFFFFFFFFFFFFFFFFFFFFF AND PUSH20 0xFFFFFFFFFFFFFFFFFFFFFFFFFFFFFFFFFFFFFFFF AND DUP2 MSTORE PUSH1 0x20 ADD SWAP1 DUP2 MSTORE PUSH1 0x20 ADD PUSH1 0x0 KECCAK256 DUP2 SWAP1 SSTORE POP PUSH1 0x1 DUP4 EQ ISZERO PUSH2 0x344 JUMPI PUSH1 0x1 PUSH1 0x3 PUSH1 0x0 DUP3 DUP3 SLOAD PUSH2 0x333 SWAP2 SWAP1 PUSH2 0xD17 JUMP JUMPDEST SWAP3 POP POP DUP2 SWAP1 SSTORE POP PUSH1 0x3 SLOAD SWAP1 POP PUSH2 0x3A2 JUMP JUMPDEST PUSH1 0x2 DUP4 EQ ISZERO PUSH2 0x371 JUMPI PUSH1 0x1 PUSH1 0x2 PUSH1 0x0 DUP3 DUP3 SLOAD PUSH2 0x360 SWAP2 SWAP1 PUSH2 0xD17 JUMP JUMPDEST SWAP3 POP POP DUP2 SWAP1 SSTORE POP PUSH1 0x2 SLOAD SWAP1 POP PUSH2 0x3A2 JUMP JUMPDEST PUSH1 0x3 DUP4 EQ ISZERO PUSH2 0x39D JUMPI PUSH1 0x1 DUP1 PUSH1 0x0 DUP3 DUP3 SLOAD PUSH2 0x38C SWAP2 SWAP1 PUSH2 0xD17 JUMP JUMPDEST SWAP3 POP POP DUP2 SWAP1 SSTORE POP PUSH1 0x1 SLOAD SWAP1 POP PUSH2 0x3A2 JUMP JUMPDEST PUSH1 0x0 SWAP1 POP JUMPDEST SWAP3 SWAP2 POP POP JUMP JUMPDEST PUSH1 0x0 PUSH1 0x1 SLOAD SWAP1 POP SWAP1 JUMP JUMPDEST PUSH1 0x60 PUSH1 0x4 PUSH1 0x0 DUP4 PUSH20 0xFFFFFFFFFFFFFFFFFFFFFFFFFFFFFFFFFFFFFFFF AND PUSH20 0xFFFFFFFFFFFFFFFFFFFFFFFFFFFFFFFFFFFFFFFF AND DUP2 MSTORE PUSH1 0x20 ADD SWAP1 DUP2 MSTORE PUSH1 0x20 ADD PUSH1 0x0 KECCAK256 DUP1 SLOAD DUP1 PUSH1 0x20 MUL PUSH1 0x20 ADD PUSH1 0x40 MLOAD SWAP1 DUP2 ADD PUSH1 0x40 MSTORE DUP1 SWAP3 SWAP2 SWAP1 DUP2 DUP2 MSTORE PUSH1 0x20 ADD DUP3 DUP1 SLOAD DUP1 ISZERO PUSH2 0x473 JUMPI PUSH1 0x20 MUL DUP3 ADD SWAP2 SWAP1 PUSH1 0x0 MSTORE PUSH1 0x20 PUSH1 0x0 KECCAK256 SWAP1 JUMPDEST DUP2 PUSH1 0x0 SWAP1 SLOAD SWAP1 PUSH2 0x100 EXP SWAP1 DIV PUSH20 0xFFFFFFFFFFFFFFFFFFFFFFFFFFFFFFFFFFFFFFFF AND PUSH20 0xFFFFFFFFFFFFFFFFFFFFFFFFFFFFFFFFFFFFFFFF AND DUP2 MSTORE PUSH1 0x20 ADD SWAP1 PUSH1 0x1 ADD SWAP1 DUP1 DUP4 GT PUSH2 0x429 JUMPI JUMPDEST POP POP POP POP POP SWAP1 POP SWAP2 SWAP1 POP JUMP JUMPDEST PUSH1 0x0 DUP1 PUSH1 0x0 SLOAD EQ DUP1 ISZERO PUSH2 0x4DF JUMPI POP CALLER PUSH20 0xFFFFFFFFFFFFFFFFFFFFFFFFFFFFFFFFFFFFFFFF AND PUSH1 0x6 PUSH1 0x0 SWAP1 SLOAD SWAP1 PUSH2 0x100 EXP SWAP1 DIV PUSH20 0xFFFFFFFFFFFFFFFFFFFFFFFFFFFFFFFFFFFFFFFF AND PUSH20 0xFFFFFFFFFFFFFFFFFFFFFFFFFFFFFFFFFFFFFFFF AND EQ JUMPDEST ISZERO PUSH2 0x60C JUMPI PUSH1 0x0 PUSH8 0xFFFFFFFFFFFFFFFF DUP2 GT ISZERO PUSH2 0x4FF JUMPI PUSH2 0x4FE PUSH2 0xE50 JUMP JUMPDEST JUMPDEST PUSH1 0x40 MLOAD SWAP1 DUP1 DUP3 MSTORE DUP1 PUSH1 0x20 MUL PUSH1 0x20 ADD DUP3 ADD PUSH1 0x40 MSTORE DUP1 ISZERO PUSH2 0x52D JUMPI DUP2 PUSH1 0x20 ADD PUSH1 0x20 DUP3 MUL DUP1 CALLDATASIZE DUP4 CALLDATACOPY DUP1 DUP3 ADD SWAP2 POP POP SWAP1 POP JUMPDEST POP PUSH1 0x7 SWAP1 DUP1 MLOAD SWAP1 PUSH1 0x20 ADD SWAP1 PUSH2 0x543 SWAP3 SWAP2 SWAP1 PUSH2 0x920 JUMP JUMPDEST POP PUSH1 0x7 DUP4 SWAP1 DUP1 PUSH1 0x1 DUP2 SLOAD ADD DUP1 DUP3 SSTORE DUP1 SWAP2 POP POP PUSH1 0x1 SWAP1 SUB SWAP1 PUSH1 0x0 MSTORE PUSH1 0x20 PUSH1 0x0 KECCAK256 ADD PUSH1 0x0 SWAP1 SWAP2 SWAP1 SWAP2 SWAP1 SWAP2 PUSH2 0x100 EXP DUP2 SLOAD DUP2 PUSH20 0xFFFFFFFFFFFFFFFFFFFFFFFFFFFFFFFFFFFFFFFF MUL NOT AND SWAP1 DUP4 PUSH20 0xFFFFFFFFFFFFFFFFFFFFFFFFFFFFFFFFFFFFFFFF AND MUL OR SWAP1 SSTORE POP PUSH1 0x7 PUSH1 0x4 PUSH1 0x0 CALLER PUSH20 0xFFFFFFFFFFFFFFFFFFFFFFFFFFFFFFFFFFFFFFFF AND PUSH20 0xFFFFFFFFFFFFFFFFFFFFFFFFFFFFFFFFFFFFFFFF AND DUP2 MSTORE PUSH1 0x20 ADD SWAP1 DUP2 MSTORE PUSH1 0x20 ADD PUSH1 0x0 KECCAK256 SWAP1 DUP1 SLOAD PUSH2 0x5F6 SWAP3 SWAP2 SWAP1 PUSH2 0x9AA JUMP JUMPDEST POP PUSH1 0x1 PUSH1 0x0 DUP2 SWAP1 SSTORE POP PUSH1 0x7 DUP1 SLOAD SWAP1 POP SWAP1 POP PUSH2 0x7B4 JUMP JUMPDEST PUSH1 0x0 ISZERO ISZERO PUSH2 0x619 DUP4 PUSH2 0x80D JUMP JUMPDEST ISZERO ISZERO EQ ISZERO PUSH2 0x65C JUMPI PUSH1 0x40 MLOAD PUSH32 0x8C379A000000000000000000000000000000000000000000000000000000000 DUP2 MSTORE PUSH1 0x4 ADD PUSH2 0x653 SWAP1 PUSH2 0xC92 JUMP JUMPDEST PUSH1 0x40 MLOAD DUP1 SWAP2 SUB SWAP1 REVERT JUMPDEST PUSH1 0x4 PUSH1 0x0 CALLER PUSH20 0xFFFFFFFFFFFFFFFFFFFFFFFFFFFFFFFFFFFFFFFF AND PUSH20 0xFFFFFFFFFFFFFFFFFFFFFFFFFFFFFFFFFFFFFFFF AND DUP2 MSTORE PUSH1 0x20 ADD SWAP1 DUP2 MSTORE PUSH1 0x20 ADD PUSH1 0x0 KECCAK256 PUSH1 0x7 SWAP1 DUP1 SLOAD PUSH2 0x6AB SWAP3 SWAP2 SWAP1 PUSH2 0x9AA JUMP JUMPDEST POP PUSH1 0x7 DUP4 SWAP1 DUP1 PUSH1 0x1 DUP2 SLOAD ADD DUP1 DUP3 SSTORE DUP1 SWAP2 POP POP PUSH1 0x1 SWAP1 SUB SWAP1 PUSH1 0x0 MSTORE PUSH1 0x20 PUSH1 0x0 KECCAK256 ADD PUSH1 0x0 SWAP1 SWAP2 SWAP1 SWAP2 SWAP1 SWAP2 PUSH2 0x100 EXP DUP2 SLOAD DUP2 PUSH20 0xFFFFFFFFFFFFFFFFFFFFFFFFFFFFFFFFFFFFFFFF MUL NOT AND SWAP1 DUP4 PUSH20 0xFFFFFFFFFFFFFFFFFFFFFFFFFFFFFFFFFFFFFFFF AND MUL OR SWAP1 SSTORE POP PUSH1 0x6 PUSH1 0x7 DUP1 SLOAD SWAP1 POP GT PUSH2 0x779 JUMPI PUSH1 0x7 PUSH1 0x4 PUSH1 0x0 CALLER PUSH20 0xFFFFFFFFFFFFFFFFFFFFFFFFFFFFFFFFFFFFFFFF AND PUSH20 0xFFFFFFFFFFFFFFFFFFFFFFFFFFFFFFFFFFFFFFFF AND DUP2 MSTORE PUSH1 0x20 ADD SWAP1 DUP2 MSTORE PUSH1 0x20 ADD PUSH1 0x0 KECCAK256 SWAP1 DUP1 SLOAD PUSH2 0x76B SWAP3 SWAP2 SWAP1 PUSH2 0x9AA JUMP JUMPDEST POP PUSH1 0x7 DUP1 SLOAD SWAP1 POP SWAP1 POP PUSH2 0x7B4 JUMP JUMPDEST PUSH1 0x40 MLOAD PUSH32 0x8C379A000000000000000000000000000000000000000000000000000000000 DUP2 MSTORE PUSH1 0x4 ADD PUSH2 0x7AB SWAP1 PUSH2 0xC72 JUMP JUMPDEST PUSH1 0x40 MLOAD DUP1 SWAP2 SUB SWAP1 REVERT JUMPDEST SWAP3 SWAP2 POP POP JUMP JUMPDEST PUSH1 0x0 PUSH1 0x2 SLOAD SWAP1 POP SWAP1 JUMP JUMPDEST PUSH1 0x0 PUSH1 0x5 PUSH1 0x0 DUP4 PUSH20 0xFFFFFFFFFFFFFFFFFFFFFFFFFFFFFFFFFFFFFFFF AND PUSH20 0xFFFFFFFFFFFFFFFFFFFFFFFFFFFFFFFFFFFFFFFF AND DUP2 MSTORE PUSH1 0x20 ADD SWAP1 DUP2 MSTORE PUSH1 0x20 ADD PUSH1 0x0 KECCAK256 SLOAD SWAP1 POP SWAP2 SWAP1 POP JUMP JUMPDEST PUSH1 0x0 PUSH1 0x4 PUSH1 0x0 DUP4 PUSH20 0xFFFFFFFFFFFFFFFFFFFFFFFFFFFFFFFFFFFFFFFF AND PUSH20 0xFFFFFFFFFFFFFFFFFFFFFFFFFFFFFFFFFFFFFFFF AND DUP2 MSTORE PUSH1 0x20 ADD SWAP1 DUP2 MSTORE PUSH1 0x20 ADD PUSH1 0x0 KECCAK256 PUSH1 0x7 SWAP1 DUP1 SLOAD PUSH2 0x85E SWAP3 SWAP2 SWAP1 PUSH2 0x9AA JUMP JUMPDEST POP PUSH1 0x0 PUSH1 0x7 DUP1 SLOAD SWAP1 POP EQ ISZERO PUSH2 0x876 JUMPI PUSH1 0x0 SWAP1 POP PUSH2 0x91B JUMP JUMPDEST PUSH1 0x0 JUMPDEST PUSH1 0x7 DUP1 SLOAD SWAP1 POP DUP2 LT ISZERO PUSH2 0x915 JUMPI CALLER PUSH20 0xFFFFFFFFFFFFFFFFFFFFFFFFFFFFFFFFFFFFFFFF AND PUSH1 0x7 DUP3 DUP2 SLOAD DUP2 LT PUSH2 0x8B1 JUMPI PUSH2 0x8B0 PUSH2 0xE21 JUMP JUMPDEST JUMPDEST SWAP1 PUSH1 0x0 MSTORE PUSH1 0x20 PUSH1 0x0 KECCAK256 ADD PUSH1 0x0 SWAP1 SLOAD SWAP1 PUSH2 0x100 EXP SWAP1 DIV PUSH20 0xFFFFFFFFFFFFFFFFFFFFFFFFFFFFFFFFFFFFFFFF AND PUSH20 0xFFFFFFFFFFFFFFFFFFFFFFFFFFFFFFFFFFFFFFFF AND EQ ISZERO PUSH2 0x902 JUMPI PUSH1 0x1 SWAP2 POP POP PUSH2 0x91B JUMP JUMPDEST DUP1 DUP1 PUSH2 0x90D SWAP1 PUSH2 0xDA9 JUMP JUMPDEST SWAP2 POP POP PUSH2 0x879 JUMP JUMPDEST POP PUSH1 0x0 SWAP1 POP JUMPDEST SWAP2 SWAP1 POP JUMP JUMPDEST DUP3 DUP1 SLOAD DUP3 DUP3 SSTORE SWAP1 PUSH1 0x0 MSTORE PUSH1 0x20 PUSH1 0x0 KECCAK256 SWAP1 DUP2 ADD SWAP3 DUP3 ISZERO PUSH2 0x999 JUMPI SWAP2 PUSH1 0x20 MUL DUP3 ADD JUMPDEST DUP3 DUP2 GT ISZERO PUSH2 0x998 JUMPI DUP3 MLOAD DUP3 PUSH1 0x0 PUSH2 0x100 EXP DUP2 SLOAD DUP2 PUSH20 0xFFFFFFFFFFFFFFFFFFFFFFFFFFFFFFFFFFFFFFFF MUL NOT AND SWAP1 DUP4 PUSH20 0xFFFFFFFFFFFFFFFFFFFFFFFFFFFFFFFFFFFFFFFF AND MUL OR SWAP1 SSTORE POP SWAP2 PUSH1 0x20 ADD SWAP2 SWAP1 PUSH1 0x1 ADD SWAP1 PUSH2 0x940 JUMP JUMPDEST JUMPDEST POP SWAP1 POP PUSH2 0x9A6 SWAP2 SWAP1 PUSH2 0x9FC JUMP JUMPDEST POP SWAP1 JUMP JUMPDEST DUP3 DUP1 SLOAD DUP3 DUP3 SSTORE SWAP1 PUSH1 0x0 MSTORE PUSH1 0x20 PUSH1 0x0 KECCAK256 SWAP1 DUP2 ADD SWAP3 DUP3 ISZERO PUSH2 0x9EB JUMPI PUSH1 0x0 MSTORE PUSH1 0x20 PUSH1 0x0 KECCAK256 SWAP2 DUP3 ADD JUMPDEST DUP3 DUP2 GT ISZERO PUSH2 0x9EA JUMPI DUP3 SLOAD DUP3 SSTORE SWAP2 PUSH1 0x1 ADD SWAP2 SWAP1 PUSH1 0x1 ADD SWAP1 PUSH2 0x9CF JUMP JUMPDEST JUMPDEST POP SWAP1 POP PUSH2 0x9F8 SWAP2 SWAP1 PUSH2 0x9FC JUMP JUMPDEST POP SWAP1 JUMP JUMPDEST JUMPDEST DUP1 DUP3 GT ISZERO PUSH2 0xA15 JUMPI PUSH1 0x0 DUP2 PUSH1 0x0 SWAP1 SSTORE POP PUSH1 0x1 ADD PUSH2 0x9FD JUMP JUMPDEST POP SWAP1 JUMP JUMPDEST PUSH1 0x0 DUP2 CALLDATALOAD SWAP1 POP PUSH2 0xA28 DUP2 PUSH2 0xF74 JUMP JUMPDEST SWAP3 SWAP2 POP POP JUMP JUMPDEST PUSH1 0x0 DUP2 CALLDATALOAD SWAP1 POP PUSH2 0xA3D DUP2 PUSH2 0xF8B JUMP JUMPDEST SWAP3 SWAP2 POP POP JUMP JUMPDEST PUSH1 0x0 PUSH1 0x20 DUP3 DUP5 SUB SLT ISZERO PUSH2 0xA59 JUMPI PUSH2 0xA58 PUSH2 0xE7F JUMP JUMPDEST JUMPDEST PUSH1 0x0 PUSH2 0xA67 DUP5 DUP3 DUP6 ADD PUSH2 0xA19 JUMP JUMPDEST SWAP2 POP POP SWAP3 SWAP2 POP POP JUMP JUMPDEST PUSH1 0x0 DUP1 PUSH1 0x40 DUP4 DUP6 SUB SLT ISZERO PUSH2 0xA87 JUMPI PUSH2 0xA86 PUSH2 0xE7F JUMP JUMPDEST JUMPDEST PUSH1 0x0 PUSH2 0xA95 DUP6 DUP3 DUP7 ADD PUSH2 0xA19 JUMP JUMPDEST SWAP3 POP POP PUSH1 0x20 PUSH2 0xAA6 DUP6 DUP3 DUP7 ADD PUSH2 0xA19 JUMP JUMPDEST SWAP2 POP POP SWAP3 POP SWAP3 SWAP1 POP JUMP JUMPDEST PUSH1 0x0 DUP1 PUSH1 0x40 DUP4 DUP6 SUB SLT ISZERO PUSH2 0xAC7 JUMPI PUSH2 0xAC6 PUSH2 0xE7F JUMP JUMPDEST JUMPDEST PUSH1 0x0 PUSH2 0xAD5 DUP6 DUP3 DUP7 ADD PUSH2 0xA2E JUMP JUMPDEST SWAP3 POP POP PUSH1 0x20 PUSH2 0xAE6 DUP6 DUP3 DUP7 ADD PUSH2 0xA19 JUMP JUMPDEST SWAP2 POP POP SWAP3 POP SWAP3 SWAP1 POP JUMP JUMPDEST PUSH1 0x0 PUSH2 0xAFC DUP4 DUP4 PUSH2 0xB08 JUMP JUMPDEST PUSH1 0x20 DUP4 ADD SWAP1 POP SWAP3 SWAP2 POP POP JUMP JUMPDEST PUSH2 0xB11 DUP2 PUSH2 0xD6D JUMP JUMPDEST DUP3 MSTORE POP POP JUMP JUMPDEST PUSH1 0x0 PUSH2 0xB22 DUP3 PUSH2 0xCDD JUMP JUMPDEST PUSH2 0xB2C DUP2 DUP6 PUSH2 0xCF5 JUMP JUMPDEST SWAP4 POP PUSH2 0xB37 DUP4 PUSH2 0xCCD JUMP JUMPDEST DUP1 PUSH1 0x0 JUMPDEST DUP4 DUP2 LT ISZERO PUSH2 0xB68 JUMPI DUP2 MLOAD PUSH2 0xB4F DUP9 DUP3 PUSH2 0xAF0 JUMP JUMPDEST SWAP8 POP PUSH2 0xB5A DUP4 PUSH2 0xCE8 JUMP JUMPDEST SWAP3 POP POP PUSH1 0x1 DUP2 ADD SWAP1 POP PUSH2 0xB3B JUMP JUMPDEST POP DUP6 SWAP4 POP POP POP POP SWAP3 SWAP2 POP POP JUMP JUMPDEST PUSH1 0x0 PUSH2 0xB82 PUSH1 0x1E DUP4 PUSH2 0xD06 JUMP JUMPDEST SWAP2 POP PUSH2 0xB8D DUP3 PUSH2 0xE84 JUMP JUMPDEST PUSH1 0x20 DUP3 ADD SWAP1 POP SWAP2 SWAP1 POP JUMP JUMPDEST PUSH1 0x0 PUSH2 0xBA5 PUSH1 0xD DUP4 PUSH2 0xD06 JUMP JUMPDEST SWAP2 POP PUSH2 0xBB0 DUP3 PUSH2 0xEAD JUMP JUMPDEST PUSH1 0x20 DUP3 ADD SWAP1 POP SWAP2 SWAP1 POP JUMP JUMPDEST PUSH1 0x0 PUSH2 0xBC8 PUSH1 0x2F DUP4 PUSH2 0xD06 JUMP JUMPDEST SWAP2 POP PUSH2 0xBD3 DUP3 PUSH2 0xED6 JUMP JUMPDEST PUSH1 0x40 DUP3 ADD SWAP1 POP SWAP2 SWAP1 POP JUMP JUMPDEST PUSH1 0x0 PUSH2 0xBEB PUSH1 0x26 DUP4 PUSH2 0xD06 JUMP JUMPDEST SWAP2 POP PUSH2 0xBF6 DUP3 PUSH2 0xF25 JUMP JUMPDEST PUSH1 0x40 DUP3 ADD SWAP1 POP SWAP2 SWAP1 POP JUMP JUMPDEST PUSH2 0xC0A DUP2 PUSH2 0xD9F JUMP JUMPDEST DUP3 MSTORE POP POP JUMP JUMPDEST PUSH1 0x0 PUSH1 0x20 DUP3 ADD SWAP1 POP DUP2 DUP2 SUB PUSH1 0x0 DUP4 ADD MSTORE PUSH2 0xC2A DUP2 DUP5 PUSH2 0xB17 JUMP JUMPDEST SWAP1 POP SWAP3 SWAP2 POP POP JUMP JUMPDEST PUSH1 0x0 PUSH1 0x20 DUP3 ADD SWAP1 POP DUP2 DUP2 SUB PUSH1 0x0 DUP4 ADD MSTORE PUSH2 0xC4B DUP2 PUSH2 0xB75 JUMP JUMPDEST SWAP1 POP SWAP2 SWAP1 POP JUMP JUMPDEST PUSH1 0x0 PUSH1 0x20 DUP3 ADD SWAP1 POP DUP2 DUP2 SUB PUSH1 0x0 DUP4 ADD MSTORE PUSH2 0xC6B DUP2 PUSH2 0xB98 JUMP JUMPDEST SWAP1 POP SWAP2 SWAP1 POP JUMP JUMPDEST PUSH1 0x0 PUSH1 0x20 DUP3 ADD SWAP1 POP DUP2 DUP2 SUB PUSH1 0x0 DUP4 ADD MSTORE PUSH2 0xC8B DUP2 PUSH2 0xBBB JUMP JUMPDEST SWAP1 POP SWAP2 SWAP1 POP JUMP JUMPDEST PUSH1 0x0 PUSH1 0x20 DUP3 ADD SWAP1 POP DUP2 DUP2 SUB PUSH1 0x0 DUP4 ADD MSTORE PUSH2 0xCAB DUP2 PUSH2 0xBDE JUMP JUMPDEST SWAP1 POP SWAP2 SWAP1 POP JUMP JUMPDEST PUSH1 0x0 PUSH1 0x20 DUP3 ADD SWAP1 POP PUSH2 0xCC7 PUSH1 0x0 DUP4 ADD DUP5 PUSH2 0xC01 JUMP JUMPDEST SWAP3 SWAP2 POP POP JUMP JUMPDEST PUSH1 0x0 DUP2 SWAP1 POP PUSH1 0x20 DUP3 ADD SWAP1 POP SWAP2 SWAP1 POP JUMP JUMPDEST PUSH1 0x0 DUP2 MLOAD SWAP1 POP SWAP2 SWAP1 POP JUMP JUMPDEST PUSH1 0x0 PUSH1 0x20 DUP3 ADD SWAP1 POP SWAP2 SWAP1 POP JUMP JUMPDEST PUSH1 0x0 DUP3 DUP3 MSTORE PUSH1 0x20 DUP3 ADD SWAP1 POP SWAP3 SWAP2 POP POP JUMP JUMPDEST PUSH1 0x0 DUP3 DUP3 MSTORE PUSH1 0x20 DUP3 ADD SWAP1 POP SWAP3 SWAP2 POP POP JUMP JUMPDEST PUSH1 0x0 PUSH2 0xD22 DUP3 PUSH2 0xD9F JUMP JUMPDEST SWAP2 POP PUSH2 0xD2D DUP4 PUSH2 0xD9F JUMP JUMPDEST SWAP3 POP DUP3 PUSH32 0xFFFFFFFFFFFFFFFFFFFFFFFFFFFFFFFFFFFFFFFFFFFFFFFFFFFFFFFFFFFFFFFF SUB DUP3 GT ISZERO PUSH2 0xD62 JUMPI PUSH2 0xD61 PUSH2 0xDF2 JUMP JUMPDEST JUMPDEST DUP3 DUP3 ADD SWAP1 POP SWAP3 SWAP2 POP POP JUMP JUMPDEST PUSH1 0x0 PUSH2 0xD78 DUP3 PUSH2 0xD7F JUMP JUMPDEST SWAP1 POP SWAP2 SWAP1 POP JUMP JUMPDEST PUSH1 0x0 PUSH20 0xFFFFFFFFFFFFFFFFFFFFFFFFFFFFFFFFFFFFFFFF DUP3 AND SWAP1 POP SWAP2 SWAP1 POP JUMP JUMPDEST PUSH1 0x0 DUP2 SWAP1 POP SWAP2 SWAP1 POP JUMP JUMPDEST PUSH1 0x0 PUSH2 0xDB4 DUP3 PUSH2 0xD9F JUMP JUMPDEST SWAP2 POP PUSH32 0xFFFFFFFFFFFFFFFFFFFFFFFFFFFFFFFFFFFFFFFFFFFFFFFFFFFFFFFFFFFFFFFF DUP3 EQ ISZERO PUSH2 0xDE7 JUMPI PUSH2 0xDE6 PUSH2 0xDF2 JUMP JUMPDEST JUMPDEST PUSH1 0x1 DUP3 ADD SWAP1 POP SWAP2 SWAP1 POP JUMP JUMPDEST PUSH32 0x4E487B7100000000000000000000000000000000000000000000000000000000 PUSH1 0x0 MSTORE PUSH1 0x11 PUSH1 0x4 MSTORE PUSH1 0x24 PUSH1 0x0 REVERT JUMPDEST PUSH32 0x4E487B7100000000000000000000000000000000000000000000000000000000 PUSH1 0x0 MSTORE PUSH1 0x32 PUSH1 0x4 MSTORE PUSH1 0x24 PUSH1 0x0 REVERT JUMPDEST PUSH32 0x4E487B7100000000000000000000000000000000000000000000000000000000 PUSH1 0x0 MSTORE PUSH1 0x41 PUSH1 0x4 MSTORE PUSH1 0x24 PUSH1 0x0 REVERT JUMPDEST PUSH1 0x0 DUP1 REVERT JUMPDEST PUSH32 0x506C6561736520656E7465722074686520636F72726563742076616C75650000 PUSH1 0x0 DUP3 ADD MSTORE POP JUMP JUMPDEST PUSH32 0x416C726561647920766F74656400000000000000000000000000000000000000 PUSH1 0x0 DUP3 ADD MSTORE POP JUMP JUMPDEST PUSH32 0x546865206E756D626572206F6620696E7669746174696F6E7320686173206578 PUSH1 0x0 DUP3 ADD MSTORE PUSH32 0x63656564656420362070656F706C650000000000000000000000000000000000 PUSH1 0x20 DUP3 ADD MSTORE POP JUMP JUMPDEST PUSH32 0x506C6561736520636F6E746163742036366363666640686973746F7279626C6F PUSH1 0x0 DUP3 ADD MSTORE PUSH32 0x636B2E6F72670000000000000000000000000000000000000000000000000000 PUSH1 0x20 DUP3 ADD MSTORE POP JUMP JUMPDEST PUSH2 0xF7D DUP2 PUSH2 0xD6D JUMP JUMPDEST DUP2 EQ PUSH2 0xF88 JUMPI PUSH1 0x0 DUP1 REVERT JUMPDEST POP JUMP JUMPDEST PUSH2 0xF94 DUP2 PUSH2 0xD9F JUMP JUMPDEST DUP2 EQ PUSH2 0xF9F JUMPI PUSH1 0x0 DUP1 REVERT JUMPDEST POP JUMP INVALID LOG2 PUSH5 0x6970667358 0x22 SLT KECCAK256 PUSH22 0x709B6DFCDAB70F34B6868A60890C815DF5A4B551E94F DUP13 0x5E SSTORE 0xAD 0x2D SWAP11 0x29 CALLDATASIZE 0xBD PUSH5 0x736F6C6343 STOP ADDMOD SMOD STOP CALLER "
				},
				"gasEstimates": {
					"creation": {
						"codeDepositCost": "811200",
						"executionCost": "45134",
						"totalCost": "856334"
					},
					"external": {
						"getPeople(address)": "infinite",
						"getVoting(address)": "2907",
						"invite(address,address)": "infinite",
						"retDynamicZeroing()": "2482",
						"retNeutrality()": "2438",
						"retOpen()": "2481",
						"voting(uint256,address)": "infinite"
					},
					"internal": {
						"whitelistCheck(address)": "infinite"
					}
				},
				"methodIdentifiers": {
					"getPeople(address)": "3fc69d47",
					"getVoting(address)": "dde23de8",
					"invite(address,address)": "6f4c6443",
					"retDynamicZeroing()": "3a1c4a25",
					"retNeutrality()": "0f5dbb50",
					"retOpen()": "d349973c",
					"voting(uint256,address)": "3017a1d8"
				}
			},
			"storageLayout": {
				"storage": [
					{
						"astId": 5,
						"contract": "contracts/Choose.sol:Choose",
						"label": "init",
						"offset": 0,
						"slot": "0",
						"type": "t_uint256"
					},
					{
						"astId": 8,
						"contract": "contracts/Choose.sol:Choose",
						"label": "neutrality",
						"offset": 0,
						"slot": "1",
						"type": "t_uint256"
					},
					{
						"astId": 11,
						"contract": "contracts/Choose.sol:Choose",
						"label": "open",
						"offset": 0,
						"slot": "2",
						"type": "t_uint256"
					},
					{
						"astId": 14,
						"contract": "contracts/Choose.sol:Choose",
						"label": "dynamicZeroing",
						"offset": 0,
						"slot": "3",
						"type": "t_uint256"
					},
					{
						"astId": 19,
						"contract": "contracts/Choose.sol:Choose",
						"label": "people",
						"offset": 0,
						"slot": "4",
						"type": "t_mapping(t_address,t_array(t_address)dyn_storage)"
					},
					{
						"astId": 23,
						"contract": "contracts/Choose.sol:Choose",
						"label": "votingCheck",
						"offset": 0,
						"slot": "5",
						"type": "t_mapping(t_address,t_uint256)"
					},
					{
						"astId": 25,
						"contract": "contracts/Choose.sol:Choose",
						"label": "owner",
						"offset": 0,
						"slot": "6",
						"type": "t_address"
					},
					{
						"astId": 28,
						"contract": "contracts/Choose.sol:Choose",
						"label": "a6",
						"offset": 0,
						"slot": "7",
						"type": "t_array(t_address)dyn_storage"
					}
				],
				"types": {
					"t_address": {
						"encoding": "inplace",
						"label": "address",
						"numberOfBytes": "20"
					},
					"t_array(t_address)dyn_storage": {
						"base": "t_address",
						"encoding": "dynamic_array",
						"label": "address[]",
						"numberOfBytes": "32"
					},
					"t_mapping(t_address,t_array(t_address)dyn_storage)": {
						"encoding": "mapping",
						"key": "t_address",
						"label": "mapping(address => address[])",
						"numberOfBytes": "32",
						"value": "t_array(t_address)dyn_storage"
					},
					"t_mapping(t_address,t_uint256)": {
						"encoding": "mapping",
						"key": "t_address",
						"label": "mapping(address => uint256)",
						"numberOfBytes": "32",
						"value": "t_uint256"
					},
					"t_uint256": {
						"encoding": "inplace",
						"label": "uint256",
						"numberOfBytes": "32"
					}
				}
			},
			"userdoc": {
				"kind": "user",
				"methods": {
					"invite(address,address)": {
						"notice": "邀请用户投票，由合约账户建立起点后，被邀请账户可继续邀请6人"
					},
					"voting(uint256,address)": {
						"notice": "投票函数"
					}
				},
				"version": 1
			}
		}
	}
}